{"abi":[{"inputs":[{"internalType":"uint256","name":"minimum","type":"uint256"},{"internalType":"address","name":"creator","type":"address"}],"stateMutability":"nonpayable","type":"constructor"},{"inputs":[{"internalType":"uint256","name":"index","type":"uint256"}],"name":"approveRequest","outputs":[],"stateMutability":"nonpayable","type":"function"},{"inputs":[{"internalType":"address","name":"","type":"address"}],"name":"approvers","outputs":[{"internalType":"bool","name":"","type":"bool"}],"stateMutability":"view","type":"function"},{"inputs":[],"name":"approversCount","outputs":[{"internalType":"uint256","name":"","type":"uint256"}],"stateMutability":"view","type":"function"},{"inputs":[],"name":"contribute","outputs":[],"stateMutability":"payable","type":"function"},{"inputs":[{"internalType":"string","name":"description","type":"string"},{"internalType":"uint256","name":"value","type":"uint256"},{"internalType":"address payable","name":"recipient","type":"address"}],"name":"createRequest","outputs":[],"stateMutability":"nonpayable","type":"function"},{"inputs":[{"internalType":"uint256","name":"index","type":"uint256"}],"name":"finalizeRequest","outputs":[],"stateMutability":"nonpayable","type":"function"},{"inputs":[],"name":"manager","outputs":[{"internalType":"address","name":"","type":"address"}],"stateMutability":"view","type":"function"},{"inputs":[],"name":"minContribution","outputs":[{"internalType":"uint256","name":"","type":"uint256"}],"stateMutability":"view","type":"function"},{"inputs":[{"internalType":"uint256","name":"","type":"uint256"}],"name":"requests","outputs":[{"internalType":"string","name":"description","type":"string"},{"internalType":"uint256","name":"value","type":"uint256"},{"internalType":"address payable","name":"recipient","type":"address"},{"internalType":"bool","name":"complete","type":"bool"},{"internalType":"uint256","name":"approvalCount","type":"uint256"}],"stateMutability":"view","type":"function"}],"devdoc":{"kind":"dev","methods":{},"version":1},"evm":{"assembly":"    /* \"Campaign.sol\":481:2305  contract Campaign {... */\n  mstore(0x40, 0x80)\n    /* \"Campaign.sol\":987:1102  constructor(uint minimum, address creator) {... */\n  callvalue\n  dup1\n  iszero\n  tag_1\n  jumpi\n  0x00\n  dup1\n  revert\ntag_1:\n  pop\n  mload(0x40)\n  sub(codesize, bytecodeSize)\n  dup1\n  bytecodeSize\n  dup4\n  codecopy\n  dup2\n  dup2\n  add\n  0x40\n  mstore\n  dup2\n  add\n  swap1\n  tag_2\n  swap2\n  swap1\n  tag_3\n  jump\t// in\ntag_2:\n    /* \"Campaign.sol\":1051:1058  creator */\n  dup1\n    /* \"Campaign.sol\":1041:1048  manager */\n  0x00\n  dup1\n    /* \"Campaign.sol\":1041:1058  manager = creator */\n  0x0100\n  exp\n  dup2\n  sload\n  dup2\n  0xffffffffffffffffffffffffffffffffffffffff\n  mul\n  not\n  and\n  swap1\n  dup4\n  0xffffffffffffffffffffffffffffffffffffffff\n  and\n  mul\n  or\n  swap1\n  sstore\n  pop\n    /* \"Campaign.sol\":1087:1094  minimum */\n  dup2\n    /* \"Campaign.sol\":1069:1084  minContribution */\n  0x02\n    /* \"Campaign.sol\":1069:1094  minContribution = minimum */\n  dup2\n  swap1\n  sstore\n  pop\n    /* \"Campaign.sol\":987:1102  constructor(uint minimum, address creator) {... */\n  pop\n  pop\n    /* \"Campaign.sol\":481:2305  contract Campaign {... */\n  jump(tag_6)\n    /* \"#utility.yul\":7:150   */\ntag_8:\n  0x00\n    /* \"#utility.yul\":95:101   */\n  dup2\n    /* \"#utility.yul\":89:102   */\n  mload\n    /* \"#utility.yul\":80:102   */\n  swap1\n  pop\n    /* \"#utility.yul\":111:144   */\n  tag_10\n    /* \"#utility.yul\":138:143   */\n  dup2\n    /* \"#utility.yul\":111:144   */\n  tag_11\n  jump\t// in\ntag_10:\n    /* \"#utility.yul\":70:150   */\n  swap3\n  swap2\n  pop\n  pop\n  jump\t// out\n    /* \"#utility.yul\":156:299   */\ntag_12:\n  0x00\n    /* \"#utility.yul\":244:250   */\n  dup2\n    /* \"#utility.yul\":238:251   */\n  mload\n    /* \"#utility.yul\":229:251   */\n  swap1\n  pop\n    /* \"#utility.yul\":260:293   */\n  tag_14\n    /* \"#utility.yul\":287:292   */\n  dup2\n    /* \"#utility.yul\":260:293   */\n  tag_15\n  jump\t// in\ntag_14:\n    /* \"#utility.yul\":219:299   */\n  swap3\n  swap2\n  pop\n  pop\n  jump\t// out\n    /* \"#utility.yul\":305:745   */\ntag_3:\n  0x00\n  dup1\n    /* \"#utility.yul\":441:443   */\n  0x40\n    /* \"#utility.yul\":429:438   */\n  dup4\n    /* \"#utility.yul\":420:427   */\n  dup6\n    /* \"#utility.yul\":416:439   */\n  sub\n    /* \"#utility.yul\":412:444   */\n  slt\n    /* \"#utility.yul\":409:411   */\n  iszero\n  tag_17\n  jumpi\n    /* \"#utility.yul\":457:458   */\n  0x00\n    /* \"#utility.yul\":454:455   */\n  dup1\n    /* \"#utility.yul\":447:459   */\n  revert\n    /* \"#utility.yul\":409:411   */\ntag_17:\n    /* \"#utility.yul\":500:501   */\n  0x00\n    /* \"#utility.yul\":525:589   */\n  tag_18\n    /* \"#utility.yul\":581:588   */\n  dup6\n    /* \"#utility.yul\":572:578   */\n  dup3\n    /* \"#utility.yul\":561:570   */\n  dup7\n    /* \"#utility.yul\":557:579   */\n  add\n    /* \"#utility.yul\":525:589   */\n  tag_12\n  jump\t// in\ntag_18:\n    /* \"#utility.yul\":515:589   */\n  swap3\n  pop\n    /* \"#utility.yul\":471:599   */\n  pop\n    /* \"#utility.yul\":638:640   */\n  0x20\n    /* \"#utility.yul\":664:728   */\n  tag_19\n    /* \"#utility.yul\":720:727   */\n  dup6\n    /* \"#utility.yul\":711:717   */\n  dup3\n    /* \"#utility.yul\":700:709   */\n  dup7\n    /* \"#utility.yul\":696:718   */\n  add\n    /* \"#utility.yul\":664:728   */\n  tag_8\n  jump\t// in\ntag_19:\n    /* \"#utility.yul\":654:728   */\n  swap2\n  pop\n    /* \"#utility.yul\":609:738   */\n  pop\n    /* \"#utility.yul\":399:745   */\n  swap3\n  pop\n  swap3\n  swap1\n  pop\n  jump\t// out\n    /* \"#utility.yul\":751:847   */\ntag_20:\n  0x00\n    /* \"#utility.yul\":817:841   */\n  tag_22\n    /* \"#utility.yul\":835:840   */\n  dup3\n    /* \"#utility.yul\":817:841   */\n  tag_23\n  jump\t// in\ntag_22:\n    /* \"#utility.yul\":806:841   */\n  swap1\n  pop\n    /* \"#utility.yul\":796:847   */\n  swap2\n  swap1\n  pop\n  jump\t// out\n    /* \"#utility.yul\":853:979   */\ntag_23:\n  0x00\n    /* \"#utility.yul\":930:972   */\n  0xffffffffffffffffffffffffffffffffffffffff\n    /* \"#utility.yul\":923:928   */\n  dup3\n    /* \"#utility.yul\":919:973   */\n  and\n    /* \"#utility.yul\":908:973   */\n  swap1\n  pop\n    /* \"#utility.yul\":898:979   */\n  swap2\n  swap1\n  pop\n  jump\t// out\n    /* \"#utility.yul\":985:1062   */\ntag_25:\n  0x00\n    /* \"#utility.yul\":1051:1056   */\n  dup2\n    /* \"#utility.yul\":1040:1056   */\n  swap1\n  pop\n    /* \"#utility.yul\":1030:1062   */\n  swap2\n  swap1\n  pop\n  jump\t// out\n    /* \"#utility.yul\":1068:1190   */\ntag_11:\n    /* \"#utility.yul\":1141:1165   */\n  tag_28\n    /* \"#utility.yul\":1159:1164   */\n  dup2\n    /* \"#utility.yul\":1141:1165   */\n  tag_20\n  jump\t// in\ntag_28:\n    /* \"#utility.yul\":1134:1139   */\n  dup2\n    /* \"#utility.yul\":1131:1166   */\n  eq\n    /* \"#utility.yul\":1121:1123   */\n  tag_29\n  jumpi\n    /* \"#utility.yul\":1180:1181   */\n  0x00\n    /* \"#utility.yul\":1177:1178   */\n  dup1\n    /* \"#utility.yul\":1170:1182   */\n  revert\n    /* \"#utility.yul\":1121:1123   */\ntag_29:\n    /* \"#utility.yul\":1111:1190   */\n  pop\n  jump\t// out\n    /* \"#utility.yul\":1196:1318   */\ntag_15:\n    /* \"#utility.yul\":1269:1293   */\n  tag_31\n    /* \"#utility.yul\":1287:1292   */\n  dup2\n    /* \"#utility.yul\":1269:1293   */\n  tag_25\n  jump\t// in\ntag_31:\n    /* \"#utility.yul\":1262:1267   */\n  dup2\n    /* \"#utility.yul\":1259:1294   */\n  eq\n    /* \"#utility.yul\":1249:1251   */\n  tag_32\n  jumpi\n    /* \"#utility.yul\":1308:1309   */\n  0x00\n    /* \"#utility.yul\":1305:1306   */\n  dup1\n    /* \"#utility.yul\":1298:1310   */\n  revert\n    /* \"#utility.yul\":1249:1251   */\ntag_32:\n    /* \"#utility.yul\":1239:1318   */\n  pop\n  jump\t// out\n    /* \"Campaign.sol\":481:2305  contract Campaign {... */\ntag_6:\n  dataSize(sub_0)\n  dup1\n  dataOffset(sub_0)\n  0x00\n  codecopy\n  0x00\n  return\nstop\n\nsub_0: assembly {\n        /* \"Campaign.sol\":481:2305  contract Campaign {... */\n      mstore(0x40, 0x80)\n      jumpi(tag_1, lt(calldatasize, 0x04))\n      shr(0xe0, calldataload(0x00))\n      dup1\n      0x82fde093\n      gt\n      tag_11\n      jumpi\n      dup1\n      0x82fde093\n      eq\n      tag_6\n      jumpi\n      dup1\n      0x8a9cfd55\n      eq\n      tag_7\n      jumpi\n      dup1\n      0xaaffadf3\n      eq\n      tag_8\n      jumpi\n      dup1\n      0xd7bb99ba\n      eq\n      tag_9\n      jumpi\n      dup1\n      0xd7d1bbdb\n      eq\n      tag_10\n      jumpi\n      jump(tag_1)\n    tag_11:\n      dup1\n      0x03441006\n      eq\n      tag_2\n      jumpi\n      dup1\n      0x0a144391\n      eq\n      tag_3\n      jumpi\n      dup1\n      0x481c6a75\n      eq\n      tag_4\n      jumpi\n      dup1\n      0x81d12c58\n      eq\n      tag_5\n      jumpi\n    tag_1:\n      0x00\n      dup1\n      revert\n        /* \"Campaign.sol\":2005:2303  function finalizeRequest(uint index) public restricted {... */\n    tag_2:\n      callvalue\n      dup1\n      iszero\n      tag_12\n      jumpi\n      0x00\n      dup1\n      revert\n    tag_12:\n      pop\n      tag_13\n      0x04\n      dup1\n      calldatasize\n      sub\n      dup2\n      add\n      swap1\n      tag_14\n      swap2\n      swap1\n      tag_15\n      jump\t// in\n    tag_14:\n      tag_16\n      jump\t// in\n    tag_13:\n      stop\n        /* \"Campaign.sol\":815:856  mapping(address => bool) public approvers */\n    tag_3:\n      callvalue\n      dup1\n      iszero\n      tag_17\n      jumpi\n      0x00\n      dup1\n      revert\n    tag_17:\n      pop\n      tag_18\n      0x04\n      dup1\n      calldatasize\n      sub\n      dup2\n      add\n      swap1\n      tag_19\n      swap2\n      swap1\n      tag_20\n      jump\t// in\n    tag_19:\n      tag_21\n      jump\t// in\n    tag_18:\n      mload(0x40)\n      tag_22\n      swap2\n      swap1\n      tag_23\n      jump\t// in\n    tag_22:\n      mload(0x40)\n      dup1\n      swap2\n      sub\n      swap1\n      return\n        /* \"Campaign.sol\":720:742  address public manager */\n    tag_4:\n      callvalue\n      dup1\n      iszero\n      tag_24\n      jumpi\n      0x00\n      dup1\n      revert\n    tag_24:\n      pop\n      tag_25\n      tag_26\n      jump\t// in\n    tag_25:\n      mload(0x40)\n      tag_27\n      swap2\n      swap1\n      tag_28\n      jump\t// in\n    tag_27:\n      mload(0x40)\n      dup1\n      swap2\n      sub\n      swap1\n      return\n        /* \"Campaign.sol\":749:774  Request[] public requests */\n    tag_5:\n      callvalue\n      dup1\n      iszero\n      tag_29\n      jumpi\n      0x00\n      dup1\n      revert\n    tag_29:\n      pop\n      tag_30\n      0x04\n      dup1\n      calldatasize\n      sub\n      dup2\n      add\n      swap1\n      tag_31\n      swap2\n      swap1\n      tag_15\n      jump\t// in\n    tag_31:\n      tag_32\n      jump\t// in\n    tag_30:\n      mload(0x40)\n      tag_33\n      swap6\n      swap5\n      swap4\n      swap3\n      swap2\n      swap1\n      tag_34\n      jump\t// in\n    tag_33:\n      mload(0x40)\n      dup1\n      swap2\n      sub\n      swap1\n      return\n        /* \"Campaign.sol\":863:889  uint public approversCount */\n    tag_6:\n      callvalue\n      dup1\n      iszero\n      tag_35\n      jumpi\n      0x00\n      dup1\n      revert\n    tag_35:\n      pop\n      tag_36\n      tag_37\n      jump\t// in\n    tag_36:\n      mload(0x40)\n      tag_38\n      swap2\n      swap1\n      tag_39\n      jump\t// in\n    tag_38:\n      mload(0x40)\n      dup1\n      swap2\n      sub\n      swap1\n      return\n        /* \"Campaign.sol\":1109:1543  function createRequest(string memory description,... */\n    tag_7:\n      callvalue\n      dup1\n      iszero\n      tag_40\n      jumpi\n      0x00\n      dup1\n      revert\n    tag_40:\n      pop\n      tag_41\n      0x04\n      dup1\n      calldatasize\n      sub\n      dup2\n      add\n      swap1\n      tag_42\n      swap2\n      swap1\n      tag_43\n      jump\t// in\n    tag_42:\n      tag_44\n      jump\t// in\n    tag_41:\n      stop\n        /* \"Campaign.sol\":781:808  uint public minContribution */\n    tag_8:\n      callvalue\n      dup1\n      iszero\n      tag_45\n      jumpi\n      0x00\n      dup1\n      revert\n    tag_45:\n      pop\n      tag_46\n      tag_47\n      jump\t// in\n    tag_46:\n      mload(0x40)\n      tag_48\n      swap2\n      swap1\n      tag_39\n      jump\t// in\n    tag_48:\n      mload(0x40)\n      dup1\n      swap2\n      sub\n      swap1\n      return\n        /* \"Campaign.sol\":1842:1998  function contribute() public payable {... */\n    tag_9:\n      tag_49\n      tag_50\n      jump\t// in\n    tag_49:\n      stop\n        /* \"Campaign.sol\":1550:1835  function  approveRequest(uint index) public {... */\n    tag_10:\n      callvalue\n      dup1\n      iszero\n      tag_51\n      jumpi\n      0x00\n      dup1\n      revert\n    tag_51:\n      pop\n      tag_52\n      0x04\n      dup1\n      calldatasize\n      sub\n      dup2\n      add\n      swap1\n      tag_53\n      swap2\n      swap1\n      tag_15\n      jump\t// in\n    tag_53:\n      tag_54\n      jump\t// in\n    tag_52:\n      stop\n        /* \"Campaign.sol\":2005:2303  function finalizeRequest(uint index) public restricted {... */\n    tag_16:\n        /* \"Campaign.sol\":952:959  manager */\n      0x00\n      dup1\n      sload\n      swap1\n      0x0100\n      exp\n      swap1\n      div\n      0xffffffffffffffffffffffffffffffffffffffff\n      and\n        /* \"Campaign.sol\":938:959  msg.sender == manager */\n      0xffffffffffffffffffffffffffffffffffffffff\n      and\n        /* \"Campaign.sol\":938:948  msg.sender */\n      caller\n        /* \"Campaign.sol\":938:959  msg.sender == manager */\n      0xffffffffffffffffffffffffffffffffffffffff\n      and\n      eq\n        /* \"Campaign.sol\":930:960  require(msg.sender == manager) */\n      tag_56\n      jumpi\n      0x00\n      dup1\n      revert\n    tag_56:\n        /* \"Campaign.sol\":2070:2093  Request storage request */\n      0x00\n        /* \"Campaign.sol\":2096:2104  requests */\n      0x01\n        /* \"Campaign.sol\":2105:2110  index */\n      dup3\n        /* \"Campaign.sol\":2096:2111  requests[index] */\n      dup2\n      sload\n      dup2\n      lt\n      tag_58\n      jumpi\n      mstore(0x00, 0x4e487b7100000000000000000000000000000000000000000000000000000000)\n      mstore(0x04, 0x32)\n      revert(0x00, 0x24)\n    tag_58:\n      swap1\n      0x00\n      mstore\n      keccak256(0x00, 0x20)\n      swap1\n      0x05\n      mul\n      add\n        /* \"Campaign.sol\":2070:2111  Request storage request = requests[index] */\n      swap1\n      pop\n        /* \"Campaign.sol\":2171:2172  2 */\n      0x02\n        /* \"Campaign.sol\":2154:2168  approversCount */\n      sload(0x04)\n        /* \"Campaign.sol\":2154:2172  approversCount / 2 */\n      tag_60\n      swap2\n      swap1\n      tag_61\n      jump\t// in\n    tag_60:\n        /* \"Campaign.sol\":2129:2136  request */\n      dup2\n        /* \"Campaign.sol\":2129:2150  request.approvalCount */\n      0x03\n      add\n      sload\n        /* \"Campaign.sol\":2129:2173  request.approvalCount > (approversCount / 2) */\n      gt\n        /* \"Campaign.sol\":2121:2174  require(request.approvalCount > (approversCount / 2)) */\n      tag_62\n      jumpi\n      0x00\n      dup1\n      revert\n    tag_62:\n        /* \"Campaign.sol\":2193:2200  request */\n      dup1\n        /* \"Campaign.sol\":2193:2209  request.complete */\n      0x02\n      add\n      0x14\n      swap1\n      sload\n      swap1\n      0x0100\n      exp\n      swap1\n      div\n      0xff\n      and\n        /* \"Campaign.sol\":2192:2209  !request.complete */\n      iszero\n        /* \"Campaign.sol\":2184:2210  require(!request.complete) */\n      tag_63\n      jumpi\n      0x00\n      dup1\n      revert\n    tag_63:\n        /* \"Campaign.sol\":2221:2228  request */\n      dup1\n        /* \"Campaign.sol\":2221:2238  request.recipient */\n      0x02\n      add\n      0x00\n      swap1\n      sload\n      swap1\n      0x0100\n      exp\n      swap1\n      div\n      0xffffffffffffffffffffffffffffffffffffffff\n      and\n        /* \"Campaign.sol\":2221:2247  request.recipient.transfer */\n      0xffffffffffffffffffffffffffffffffffffffff\n      and\n        /* \"Campaign.sol\":2221:2262  request.recipient.transfer(request.value) */\n      0x08fc\n        /* \"Campaign.sol\":2248:2255  request */\n      dup3\n        /* \"Campaign.sol\":2248:2261  request.value */\n      0x01\n      add\n      sload\n        /* \"Campaign.sol\":2221:2262  request.recipient.transfer(request.value) */\n      swap1\n      dup2\n      iszero\n      mul\n      swap1\n      mload(0x40)\n      0x00\n      mload(0x40)\n      dup1\n      dup4\n      sub\n      dup2\n      dup6\n      dup9\n      dup9\n      call\n      swap4\n      pop\n      pop\n      pop\n      pop\n      iszero\n      dup1\n      iszero\n      tag_65\n      jumpi\n      returndatasize\n      0x00\n      dup1\n      returndatacopy\n      revert(0x00, returndatasize)\n    tag_65:\n      pop\n        /* \"Campaign.sol\":2291:2295  true */\n      0x01\n        /* \"Campaign.sol\":2272:2279  request */\n      dup2\n        /* \"Campaign.sol\":2272:2288  request.complete */\n      0x02\n      add\n      0x14\n        /* \"Campaign.sol\":2272:2295  request.complete = true */\n      0x0100\n      exp\n      dup2\n      sload\n      dup2\n      0xff\n      mul\n      not\n      and\n      swap1\n      dup4\n      iszero\n      iszero\n      mul\n      or\n      swap1\n      sstore\n      pop\n        /* \"Campaign.sol\":971:972  _ */\n      pop\n        /* \"Campaign.sol\":2005:2303  function finalizeRequest(uint index) public restricted {... */\n      pop\n      jump\t// out\n        /* \"Campaign.sol\":815:856  mapping(address => bool) public approvers */\n    tag_21:\n      mstore(0x20, 0x03)\n      dup1\n      0x00\n      mstore\n      keccak256(0x00, 0x40)\n      0x00\n      swap2\n      pop\n      sload\n      swap1\n      0x0100\n      exp\n      swap1\n      div\n      0xff\n      and\n      dup2\n      jump\t// out\n        /* \"Campaign.sol\":720:742  address public manager */\n    tag_26:\n      0x00\n      dup1\n      sload\n      swap1\n      0x0100\n      exp\n      swap1\n      div\n      0xffffffffffffffffffffffffffffffffffffffff\n      and\n      dup2\n      jump\t// out\n        /* \"Campaign.sol\":749:774  Request[] public requests */\n    tag_32:\n      0x01\n      dup2\n      dup2\n      sload\n      dup2\n      lt\n      tag_66\n      jumpi\n      0x00\n      dup1\n      revert\n    tag_66:\n      swap1\n      0x00\n      mstore\n      keccak256(0x00, 0x20)\n      swap1\n      0x05\n      mul\n      add\n      0x00\n      swap2\n      pop\n      swap1\n      pop\n      dup1\n      0x00\n      add\n      dup1\n      sload\n      tag_68\n      swap1\n      tag_69\n      jump\t// in\n    tag_68:\n      dup1\n      0x1f\n      add\n      0x20\n      dup1\n      swap2\n      div\n      mul\n      0x20\n      add\n      mload(0x40)\n      swap1\n      dup2\n      add\n      0x40\n      mstore\n      dup1\n      swap3\n      swap2\n      swap1\n      dup2\n      dup2\n      mstore\n      0x20\n      add\n      dup3\n      dup1\n      sload\n      tag_70\n      swap1\n      tag_69\n      jump\t// in\n    tag_70:\n      dup1\n      iszero\n      tag_71\n      jumpi\n      dup1\n      0x1f\n      lt\n      tag_72\n      jumpi\n      0x0100\n      dup1\n      dup4\n      sload\n      div\n      mul\n      dup4\n      mstore\n      swap2\n      0x20\n      add\n      swap2\n      jump(tag_71)\n    tag_72:\n      dup3\n      add\n      swap2\n      swap1\n      0x00\n      mstore\n      keccak256(0x00, 0x20)\n      swap1\n    tag_73:\n      dup2\n      sload\n      dup2\n      mstore\n      swap1\n      0x01\n      add\n      swap1\n      0x20\n      add\n      dup1\n      dup4\n      gt\n      tag_73\n      jumpi\n      dup3\n      swap1\n      sub\n      0x1f\n      and\n      dup3\n      add\n      swap2\n    tag_71:\n      pop\n      pop\n      pop\n      pop\n      pop\n      swap1\n      dup1\n      0x01\n      add\n      sload\n      swap1\n      dup1\n      0x02\n      add\n      0x00\n      swap1\n      sload\n      swap1\n      0x0100\n      exp\n      swap1\n      div\n      0xffffffffffffffffffffffffffffffffffffffff\n      and\n      swap1\n      dup1\n      0x02\n      add\n      0x14\n      swap1\n      sload\n      swap1\n      0x0100\n      exp\n      swap1\n      div\n      0xff\n      and\n      swap1\n      dup1\n      0x03\n      add\n      sload\n      swap1\n      pop\n      dup6\n      jump\t// out\n        /* \"Campaign.sol\":863:889  uint public approversCount */\n    tag_37:\n      sload(0x04)\n      dup2\n      jump\t// out\n        /* \"Campaign.sol\":1109:1543  function createRequest(string memory description,... */\n    tag_44:\n        /* \"Campaign.sol\":952:959  manager */\n      0x00\n      dup1\n      sload\n      swap1\n      0x0100\n      exp\n      swap1\n      div\n      0xffffffffffffffffffffffffffffffffffffffff\n      and\n        /* \"Campaign.sol\":938:959  msg.sender == manager */\n      0xffffffffffffffffffffffffffffffffffffffff\n      and\n        /* \"Campaign.sol\":938:948  msg.sender */\n      caller\n        /* \"Campaign.sol\":938:959  msg.sender == manager */\n      0xffffffffffffffffffffffffffffffffffffffff\n      and\n      eq\n        /* \"Campaign.sol\":930:960  require(msg.sender == manager) */\n      tag_75\n      jumpi\n      0x00\n      dup1\n      revert\n    tag_75:\n        /* \"Campaign.sol\":1284:1310  Request storage newRequest */\n      0x00\n        /* \"Campaign.sol\":1313:1321  requests */\n      0x01\n        /* \"Campaign.sol\":1313:1328  requests.push() */\n      dup1\n      dup2\n      0x01\n      dup2\n      sload\n      add\n      dup1\n      dup3\n      sstore\n      dup1\n      swap2\n      pop\n      pop\n      sub\n      swap1\n      0x00\n      mstore\n      keccak256(0x00, 0x20)\n      swap1\n      0x05\n      mul\n      add\n        /* \"Campaign.sol\":1284:1328  Request storage newRequest = requests.push() */\n      swap1\n      pop\n        /* \"Campaign.sol\":1365:1376  description */\n      dup4\n        /* \"Campaign.sol\":1340:1350  newRequest */\n      dup2\n        /* \"Campaign.sol\":1340:1362  newRequest.description */\n      0x00\n      add\n        /* \"Campaign.sol\":1340:1376  newRequest.description = description */\n      swap1\n      dup1\n      mload\n      swap1\n      0x20\n      add\n      swap1\n      tag_78\n      swap3\n      swap2\n      swap1\n      tag_79\n      jump\t// in\n    tag_78:\n      pop\n        /* \"Campaign.sol\":1407:1412  value */\n      dup3\n        /* \"Campaign.sol\":1388:1398  newRequest */\n      dup2\n        /* \"Campaign.sol\":1388:1404  newRequest.value */\n      0x01\n      add\n        /* \"Campaign.sol\":1388:1412  newRequest.value = value */\n      dup2\n      swap1\n      sstore\n      pop\n        /* \"Campaign.sol\":1447:1456  recipient */\n      dup2\n        /* \"Campaign.sol\":1424:1434  newRequest */\n      dup2\n        /* \"Campaign.sol\":1424:1444  newRequest.recipient */\n      0x02\n      add\n      0x00\n        /* \"Campaign.sol\":1424:1456  newRequest.recipient = recipient */\n      0x0100\n      exp\n      dup2\n      sload\n      dup2\n      0xffffffffffffffffffffffffffffffffffffffff\n      mul\n      not\n      and\n      swap1\n      dup4\n      0xffffffffffffffffffffffffffffffffffffffff\n      and\n      mul\n      or\n      swap1\n      sstore\n      pop\n        /* \"Campaign.sol\":1490:1495  false */\n      0x00\n        /* \"Campaign.sol\":1468:1478  newRequest */\n      dup2\n        /* \"Campaign.sol\":1468:1487  newRequest.complete */\n      0x02\n      add\n      0x14\n        /* \"Campaign.sol\":1468:1495  newRequest.complete = false */\n      0x0100\n      exp\n      dup2\n      sload\n      dup2\n      0xff\n      mul\n      not\n      and\n      swap1\n      dup4\n      iszero\n      iszero\n      mul\n      or\n      swap1\n      sstore\n      pop\n        /* \"Campaign.sol\":1534:1535  0 */\n      0x00\n        /* \"Campaign.sol\":1507:1517  newRequest */\n      dup2\n        /* \"Campaign.sol\":1507:1531  newRequest.approvalCount */\n      0x03\n      add\n        /* \"Campaign.sol\":1507:1535  newRequest.approvalCount = 0 */\n      dup2\n      swap1\n      sstore\n      pop\n        /* \"Campaign.sol\":971:972  _ */\n      pop\n        /* \"Campaign.sol\":1109:1543  function createRequest(string memory description,... */\n      pop\n      pop\n      pop\n      jump\t// out\n        /* \"Campaign.sol\":781:808  uint public minContribution */\n    tag_47:\n      sload(0x02)\n      dup2\n      jump\t// out\n        /* \"Campaign.sol\":1842:1998  function contribute() public payable {... */\n    tag_50:\n        /* \"Campaign.sol\":1910:1925  minContribution */\n      sload(0x02)\n        /* \"Campaign.sol\":1897:1906  msg.value */\n      callvalue\n        /* \"Campaign.sol\":1897:1925  msg.value >= minContribution */\n      lt\n      iszero\n        /* \"Campaign.sol\":1889:1926  require(msg.value >= minContribution) */\n      tag_81\n      jumpi\n      0x00\n      dup1\n      revert\n    tag_81:\n        /* \"Campaign.sol\":1960:1964  true */\n      0x01\n        /* \"Campaign.sol\":1936:1945  approvers */\n      0x03\n        /* \"Campaign.sol\":1936:1957  approvers[msg.sender] */\n      0x00\n        /* \"Campaign.sol\":1946:1956  msg.sender */\n      caller\n        /* \"Campaign.sol\":1936:1957  approvers[msg.sender] */\n      0xffffffffffffffffffffffffffffffffffffffff\n      and\n      0xffffffffffffffffffffffffffffffffffffffff\n      and\n      dup2\n      mstore\n      0x20\n      add\n      swap1\n      dup2\n      mstore\n      0x20\n      add\n      0x00\n      keccak256\n      0x00\n        /* \"Campaign.sol\":1936:1964  approvers[msg.sender] = true */\n      0x0100\n      exp\n      dup2\n      sload\n      dup2\n      0xff\n      mul\n      not\n      and\n      swap1\n      dup4\n      iszero\n      iszero\n      mul\n      or\n      swap1\n      sstore\n      pop\n        /* \"Campaign.sol\":1974:1988  approversCount */\n      0x04\n      0x00\n        /* \"Campaign.sol\":1974:1990  approversCount++ */\n      dup2\n      sload\n      dup1\n      swap3\n      swap2\n      swap1\n      tag_82\n      swap1\n      tag_83\n      jump\t// in\n    tag_82:\n      swap2\n      swap1\n      pop\n      sstore\n      pop\n        /* \"Campaign.sol\":1842:1998  function contribute() public payable {... */\n      jump\t// out\n        /* \"Campaign.sol\":1550:1835  function  approveRequest(uint index) public {... */\n    tag_54:\n        /* \"Campaign.sol\":1605:1628  Request storage request */\n      0x00\n        /* \"Campaign.sol\":1631:1639  requests */\n      0x01\n        /* \"Campaign.sol\":1640:1645  index */\n      dup3\n        /* \"Campaign.sol\":1631:1646  requests[index] */\n      dup2\n      sload\n      dup2\n      lt\n      tag_85\n      jumpi\n      mstore(0x00, 0x4e487b7100000000000000000000000000000000000000000000000000000000)\n      mstore(0x04, 0x32)\n      revert(0x00, 0x24)\n    tag_85:\n      swap1\n      0x00\n      mstore\n      keccak256(0x00, 0x20)\n      swap1\n      0x05\n      mul\n      add\n        /* \"Campaign.sol\":1605:1646  Request storage request = requests[index] */\n      swap1\n      pop\n        /* \"Campaign.sol\":1665:1674  approvers */\n      0x03\n        /* \"Campaign.sol\":1665:1686  approvers[msg.sender] */\n      0x00\n        /* \"Campaign.sol\":1675:1685  msg.sender */\n      caller\n        /* \"Campaign.sol\":1665:1686  approvers[msg.sender] */\n      0xffffffffffffffffffffffffffffffffffffffff\n      and\n      0xffffffffffffffffffffffffffffffffffffffff\n      and\n      dup2\n      mstore\n      0x20\n      add\n      swap1\n      dup2\n      mstore\n      0x20\n      add\n      0x00\n      keccak256\n      0x00\n      swap1\n      sload\n      swap1\n      0x0100\n      exp\n      swap1\n      div\n      0xff\n      and\n        /* \"Campaign.sol\":1657:1687  require(approvers[msg.sender]) */\n      tag_87\n      jumpi\n      0x00\n      dup1\n      revert\n    tag_87:\n        /* \"Campaign.sol\":1707:1714  request */\n      dup1\n        /* \"Campaign.sol\":1707:1724  request.approvals */\n      0x04\n      add\n        /* \"Campaign.sol\":1707:1736  request.approvals[msg.sender] */\n      0x00\n        /* \"Campaign.sol\":1725:1735  msg.sender */\n      caller\n        /* \"Campaign.sol\":1707:1736  request.approvals[msg.sender] */\n      0xffffffffffffffffffffffffffffffffffffffff\n      and\n      0xffffffffffffffffffffffffffffffffffffffff\n      and\n      dup2\n      mstore\n      0x20\n      add\n      swap1\n      dup2\n      mstore\n      0x20\n      add\n      0x00\n      keccak256\n      0x00\n      swap1\n      sload\n      swap1\n      0x0100\n      exp\n      swap1\n      div\n      0xff\n      and\n        /* \"Campaign.sol\":1706:1736  !request.approvals[msg.sender] */\n      iszero\n        /* \"Campaign.sol\":1698:1737  require(!request.approvals[msg.sender]) */\n      tag_88\n      jumpi\n      0x00\n      dup1\n      revert\n    tag_88:\n        /* \"Campaign.sol\":1781:1785  true */\n      0x01\n        /* \"Campaign.sol\":1749:1756  request */\n      dup2\n        /* \"Campaign.sol\":1749:1766  request.approvals */\n      0x04\n      add\n        /* \"Campaign.sol\":1749:1778  request.approvals[msg.sender] */\n      0x00\n        /* \"Campaign.sol\":1767:1777  msg.sender */\n      caller\n        /* \"Campaign.sol\":1749:1778  request.approvals[msg.sender] */\n      0xffffffffffffffffffffffffffffffffffffffff\n      and\n      0xffffffffffffffffffffffffffffffffffffffff\n      and\n      dup2\n      mstore\n      0x20\n      add\n      swap1\n      dup2\n      mstore\n      0x20\n      add\n      0x00\n      keccak256\n      0x00\n        /* \"Campaign.sol\":1749:1785  request.approvals[msg.sender] = true */\n      0x0100\n      exp\n      dup2\n      sload\n      dup2\n      0xff\n      mul\n      not\n      and\n      swap1\n      dup4\n      iszero\n      iszero\n      mul\n      or\n      swap1\n      sstore\n      pop\n        /* \"Campaign.sol\":1796:1804  requests */\n      0x01\n        /* \"Campaign.sol\":1805:1810  index */\n      dup3\n        /* \"Campaign.sol\":1796:1811  requests[index] */\n      dup2\n      sload\n      dup2\n      lt\n      tag_89\n      jumpi\n      mstore(0x00, 0x4e487b7100000000000000000000000000000000000000000000000000000000)\n      mstore(0x04, 0x32)\n      revert(0x00, 0x24)\n    tag_89:\n      swap1\n      0x00\n      mstore\n      keccak256(0x00, 0x20)\n      swap1\n      0x05\n      mul\n      add\n        /* \"Campaign.sol\":1796:1825  requests[index].approvalCount */\n      0x03\n      add\n      0x00\n        /* \"Campaign.sol\":1796:1827  requests[index].approvalCount++ */\n      dup2\n      sload\n      dup1\n      swap3\n      swap2\n      swap1\n      tag_91\n      swap1\n      tag_83\n      jump\t// in\n    tag_91:\n      swap2\n      swap1\n      pop\n      sstore\n      pop\n        /* \"Campaign.sol\":1550:1835  function  approveRequest(uint index) public {... */\n      pop\n      pop\n      jump\t// out\n    tag_79:\n      dup3\n      dup1\n      sload\n      tag_92\n      swap1\n      tag_69\n      jump\t// in\n    tag_92:\n      swap1\n      0x00\n      mstore\n      keccak256(0x00, 0x20)\n      swap1\n      0x1f\n      add\n      0x20\n      swap1\n      div\n      dup2\n      add\n      swap3\n      dup3\n      tag_94\n      jumpi\n      0x00\n      dup6\n      sstore\n      jump(tag_93)\n    tag_94:\n      dup3\n      0x1f\n      lt\n      tag_95\n      jumpi\n      dup1\n      mload\n      not(0xff)\n      and\n      dup4\n      dup1\n      add\n      or\n      dup6\n      sstore\n      jump(tag_93)\n    tag_95:\n      dup3\n      dup1\n      add\n      0x01\n      add\n      dup6\n      sstore\n      dup3\n      iszero\n      tag_93\n      jumpi\n      swap2\n      dup3\n      add\n    tag_96:\n      dup3\n      dup2\n      gt\n      iszero\n      tag_97\n      jumpi\n      dup3\n      mload\n      dup3\n      sstore\n      swap2\n      0x20\n      add\n      swap2\n      swap1\n      0x01\n      add\n      swap1\n      jump(tag_96)\n    tag_97:\n    tag_93:\n      pop\n      swap1\n      pop\n      tag_98\n      swap2\n      swap1\n      tag_99\n      jump\t// in\n    tag_98:\n      pop\n      swap1\n      jump\t// out\n    tag_99:\n    tag_100:\n      dup1\n      dup3\n      gt\n      iszero\n      tag_101\n      jumpi\n      0x00\n      dup2\n      0x00\n      swap1\n      sstore\n      pop\n      0x01\n      add\n      jump(tag_100)\n    tag_101:\n      pop\n      swap1\n      jump\t// out\n        /* \"#utility.yul\":7:351   */\n    tag_103:\n      0x00\n        /* \"#utility.yul\":110:175   */\n      tag_105\n        /* \"#utility.yul\":125:174   */\n      tag_106\n        /* \"#utility.yul\":167:173   */\n      dup5\n        /* \"#utility.yul\":125:174   */\n      tag_107\n      jump\t// in\n    tag_106:\n        /* \"#utility.yul\":110:175   */\n      tag_108\n      jump\t// in\n    tag_105:\n        /* \"#utility.yul\":101:175   */\n      swap1\n      pop\n        /* \"#utility.yul\":198:204   */\n      dup3\n        /* \"#utility.yul\":191:196   */\n      dup2\n        /* \"#utility.yul\":184:205   */\n      mstore\n        /* \"#utility.yul\":236:240   */\n      0x20\n        /* \"#utility.yul\":229:234   */\n      dup2\n        /* \"#utility.yul\":225:241   */\n      add\n        /* \"#utility.yul\":274:277   */\n      dup5\n        /* \"#utility.yul\":265:271   */\n      dup5\n        /* \"#utility.yul\":260:263   */\n      dup5\n        /* \"#utility.yul\":256:272   */\n      add\n        /* \"#utility.yul\":253:278   */\n      gt\n        /* \"#utility.yul\":250:252   */\n      iszero\n      tag_109\n      jumpi\n        /* \"#utility.yul\":291:292   */\n      0x00\n        /* \"#utility.yul\":288:289   */\n      dup1\n        /* \"#utility.yul\":281:293   */\n      revert\n        /* \"#utility.yul\":250:252   */\n    tag_109:\n        /* \"#utility.yul\":304:345   */\n      tag_110\n        /* \"#utility.yul\":338:344   */\n      dup5\n        /* \"#utility.yul\":333:336   */\n      dup3\n        /* \"#utility.yul\":328:331   */\n      dup6\n        /* \"#utility.yul\":304:345   */\n      tag_111\n      jump\t// in\n    tag_110:\n        /* \"#utility.yul\":91:351   */\n      pop\n      swap4\n      swap3\n      pop\n      pop\n      pop\n      jump\t// out\n        /* \"#utility.yul\":357:496   */\n    tag_112:\n      0x00\n        /* \"#utility.yul\":441:447   */\n      dup2\n        /* \"#utility.yul\":428:448   */\n      calldataload\n        /* \"#utility.yul\":419:448   */\n      swap1\n      pop\n        /* \"#utility.yul\":457:490   */\n      tag_114\n        /* \"#utility.yul\":484:489   */\n      dup2\n        /* \"#utility.yul\":457:490   */\n      tag_115\n      jump\t// in\n    tag_114:\n        /* \"#utility.yul\":409:496   */\n      swap3\n      swap2\n      pop\n      pop\n      jump\t// out\n        /* \"#utility.yul\":502:657   */\n    tag_116:\n      0x00\n        /* \"#utility.yul\":594:600   */\n      dup2\n        /* \"#utility.yul\":581:601   */\n      calldataload\n        /* \"#utility.yul\":572:601   */\n      swap1\n      pop\n        /* \"#utility.yul\":610:651   */\n      tag_118\n        /* \"#utility.yul\":645:650   */\n      dup2\n        /* \"#utility.yul\":610:651   */\n      tag_119\n      jump\t// in\n    tag_118:\n        /* \"#utility.yul\":562:657   */\n      swap3\n      swap2\n      pop\n      pop\n      jump\t// out\n        /* \"#utility.yul\":677:950   */\n    tag_120:\n      0x00\n        /* \"#utility.yul\":782:785   */\n      dup3\n        /* \"#utility.yul\":775:779   */\n      0x1f\n        /* \"#utility.yul\":767:773   */\n      dup4\n        /* \"#utility.yul\":763:780   */\n      add\n        /* \"#utility.yul\":759:786   */\n      slt\n        /* \"#utility.yul\":749:751   */\n      tag_122\n      jumpi\n        /* \"#utility.yul\":800:801   */\n      0x00\n        /* \"#utility.yul\":797:798   */\n      dup1\n        /* \"#utility.yul\":790:802   */\n      revert\n        /* \"#utility.yul\":749:751   */\n    tag_122:\n        /* \"#utility.yul\":840:846   */\n      dup2\n        /* \"#utility.yul\":827:847   */\n      calldataload\n        /* \"#utility.yul\":865:944   */\n      tag_123\n        /* \"#utility.yul\":940:943   */\n      dup5\n        /* \"#utility.yul\":932:938   */\n      dup3\n        /* \"#utility.yul\":925:929   */\n      0x20\n        /* \"#utility.yul\":917:923   */\n      dup7\n        /* \"#utility.yul\":913:930   */\n      add\n        /* \"#utility.yul\":865:944   */\n      tag_103\n      jump\t// in\n    tag_123:\n        /* \"#utility.yul\":856:944   */\n      swap2\n      pop\n        /* \"#utility.yul\":739:950   */\n      pop\n      swap3\n      swap2\n      pop\n      pop\n      jump\t// out\n        /* \"#utility.yul\":956:1095   */\n    tag_124:\n      0x00\n        /* \"#utility.yul\":1040:1046   */\n      dup2\n        /* \"#utility.yul\":1027:1047   */\n      calldataload\n        /* \"#utility.yul\":1018:1047   */\n      swap1\n      pop\n        /* \"#utility.yul\":1056:1089   */\n      tag_126\n        /* \"#utility.yul\":1083:1088   */\n      dup2\n        /* \"#utility.yul\":1056:1089   */\n      tag_127\n      jump\t// in\n    tag_126:\n        /* \"#utility.yul\":1008:1095   */\n      swap3\n      swap2\n      pop\n      pop\n      jump\t// out\n        /* \"#utility.yul\":1101:1363   */\n    tag_20:\n      0x00\n        /* \"#utility.yul\":1209:1211   */\n      0x20\n        /* \"#utility.yul\":1197:1206   */\n      dup3\n        /* \"#utility.yul\":1188:1195   */\n      dup5\n        /* \"#utility.yul\":1184:1207   */\n      sub\n        /* \"#utility.yul\":1180:1212   */\n      slt\n        /* \"#utility.yul\":1177:1179   */\n      iszero\n      tag_129\n      jumpi\n        /* \"#utility.yul\":1225:1226   */\n      0x00\n        /* \"#utility.yul\":1222:1223   */\n      dup1\n        /* \"#utility.yul\":1215:1227   */\n      revert\n        /* \"#utility.yul\":1177:1179   */\n    tag_129:\n        /* \"#utility.yul\":1268:1269   */\n      0x00\n        /* \"#utility.yul\":1293:1346   */\n      tag_130\n        /* \"#utility.yul\":1338:1345   */\n      dup5\n        /* \"#utility.yul\":1329:1335   */\n      dup3\n        /* \"#utility.yul\":1318:1327   */\n      dup6\n        /* \"#utility.yul\":1314:1336   */\n      add\n        /* \"#utility.yul\":1293:1346   */\n      tag_112\n      jump\t// in\n    tag_130:\n        /* \"#utility.yul\":1283:1346   */\n      swap2\n      pop\n        /* \"#utility.yul\":1239:1356   */\n      pop\n        /* \"#utility.yul\":1167:1363   */\n      swap3\n      swap2\n      pop\n      pop\n      jump\t// out\n        /* \"#utility.yul\":1369:2050   */\n    tag_43:\n      0x00\n      dup1\n      0x00\n        /* \"#utility.yul\":1529:1531   */\n      0x60\n        /* \"#utility.yul\":1517:1526   */\n      dup5\n        /* \"#utility.yul\":1508:1515   */\n      dup7\n        /* \"#utility.yul\":1504:1527   */\n      sub\n        /* \"#utility.yul\":1500:1532   */\n      slt\n        /* \"#utility.yul\":1497:1499   */\n      iszero\n      tag_132\n      jumpi\n        /* \"#utility.yul\":1545:1546   */\n      0x00\n        /* \"#utility.yul\":1542:1543   */\n      dup1\n        /* \"#utility.yul\":1535:1547   */\n      revert\n        /* \"#utility.yul\":1497:1499   */\n    tag_132:\n        /* \"#utility.yul\":1616:1617   */\n      0x00\n        /* \"#utility.yul\":1605:1614   */\n      dup5\n        /* \"#utility.yul\":1601:1618   */\n      add\n        /* \"#utility.yul\":1588:1619   */\n      calldataload\n        /* \"#utility.yul\":1646:1664   */\n      0xffffffffffffffff\n        /* \"#utility.yul\":1638:1644   */\n      dup2\n        /* \"#utility.yul\":1635:1665   */\n      gt\n        /* \"#utility.yul\":1632:1634   */\n      iszero\n      tag_133\n      jumpi\n        /* \"#utility.yul\":1678:1679   */\n      0x00\n        /* \"#utility.yul\":1675:1676   */\n      dup1\n        /* \"#utility.yul\":1668:1680   */\n      revert\n        /* \"#utility.yul\":1632:1634   */\n    tag_133:\n        /* \"#utility.yul\":1706:1769   */\n      tag_134\n        /* \"#utility.yul\":1761:1768   */\n      dup7\n        /* \"#utility.yul\":1752:1758   */\n      dup3\n        /* \"#utility.yul\":1741:1750   */\n      dup8\n        /* \"#utility.yul\":1737:1759   */\n      add\n        /* \"#utility.yul\":1706:1769   */\n      tag_120\n      jump\t// in\n    tag_134:\n        /* \"#utility.yul\":1696:1769   */\n      swap4\n      pop\n        /* \"#utility.yul\":1559:1779   */\n      pop\n        /* \"#utility.yul\":1818:1820   */\n      0x20\n        /* \"#utility.yul\":1844:1897   */\n      tag_135\n        /* \"#utility.yul\":1889:1896   */\n      dup7\n        /* \"#utility.yul\":1880:1886   */\n      dup3\n        /* \"#utility.yul\":1869:1878   */\n      dup8\n        /* \"#utility.yul\":1865:1887   */\n      add\n        /* \"#utility.yul\":1844:1897   */\n      tag_124\n      jump\t// in\n    tag_135:\n        /* \"#utility.yul\":1834:1897   */\n      swap3\n      pop\n        /* \"#utility.yul\":1789:1907   */\n      pop\n        /* \"#utility.yul\":1946:1948   */\n      0x40\n        /* \"#utility.yul\":1972:2033   */\n      tag_136\n        /* \"#utility.yul\":2025:2032   */\n      dup7\n        /* \"#utility.yul\":2016:2022   */\n      dup3\n        /* \"#utility.yul\":2005:2014   */\n      dup8\n        /* \"#utility.yul\":2001:2023   */\n      add\n        /* \"#utility.yul\":1972:2033   */\n      tag_116\n      jump\t// in\n    tag_136:\n        /* \"#utility.yul\":1962:2033   */\n      swap2\n      pop\n        /* \"#utility.yul\":1917:2043   */\n      pop\n        /* \"#utility.yul\":1487:2050   */\n      swap3\n      pop\n      swap3\n      pop\n      swap3\n      jump\t// out\n        /* \"#utility.yul\":2056:2318   */\n    tag_15:\n      0x00\n        /* \"#utility.yul\":2164:2166   */\n      0x20\n        /* \"#utility.yul\":2152:2161   */\n      dup3\n        /* \"#utility.yul\":2143:2150   */\n      dup5\n        /* \"#utility.yul\":2139:2162   */\n      sub\n        /* \"#utility.yul\":2135:2167   */\n      slt\n        /* \"#utility.yul\":2132:2134   */\n      iszero\n      tag_138\n      jumpi\n        /* \"#utility.yul\":2180:2181   */\n      0x00\n        /* \"#utility.yul\":2177:2178   */\n      dup1\n        /* \"#utility.yul\":2170:2182   */\n      revert\n        /* \"#utility.yul\":2132:2134   */\n    tag_138:\n        /* \"#utility.yul\":2223:2224   */\n      0x00\n        /* \"#utility.yul\":2248:2301   */\n      tag_139\n        /* \"#utility.yul\":2293:2300   */\n      dup5\n        /* \"#utility.yul\":2284:2290   */\n      dup3\n        /* \"#utility.yul\":2273:2282   */\n      dup6\n        /* \"#utility.yul\":2269:2291   */\n      add\n        /* \"#utility.yul\":2248:2301   */\n      tag_124\n      jump\t// in\n    tag_139:\n        /* \"#utility.yul\":2238:2301   */\n      swap2\n      pop\n        /* \"#utility.yul\":2194:2311   */\n      pop\n        /* \"#utility.yul\":2122:2318   */\n      swap3\n      swap2\n      pop\n      pop\n      jump\t// out\n        /* \"#utility.yul\":2324:2466   */\n    tag_140:\n        /* \"#utility.yul\":2427:2459   */\n      tag_142\n        /* \"#utility.yul\":2453:2458   */\n      dup2\n        /* \"#utility.yul\":2427:2459   */\n      tag_143\n      jump\t// in\n    tag_142:\n        /* \"#utility.yul\":2422:2425   */\n      dup3\n        /* \"#utility.yul\":2415:2460   */\n      mstore\n        /* \"#utility.yul\":2405:2466   */\n      pop\n      pop\n      jump\t// out\n        /* \"#utility.yul\":2472:2590   */\n    tag_144:\n        /* \"#utility.yul\":2559:2583   */\n      tag_146\n        /* \"#utility.yul\":2577:2582   */\n      dup2\n        /* \"#utility.yul\":2559:2583   */\n      tag_147\n      jump\t// in\n    tag_146:\n        /* \"#utility.yul\":2554:2557   */\n      dup3\n        /* \"#utility.yul\":2547:2584   */\n      mstore\n        /* \"#utility.yul\":2537:2590   */\n      pop\n      pop\n      jump\t// out\n        /* \"#utility.yul\":2596:2705   */\n    tag_148:\n        /* \"#utility.yul\":2677:2698   */\n      tag_150\n        /* \"#utility.yul\":2692:2697   */\n      dup2\n        /* \"#utility.yul\":2677:2698   */\n      tag_151\n      jump\t// in\n    tag_150:\n        /* \"#utility.yul\":2672:2675   */\n      dup3\n        /* \"#utility.yul\":2665:2699   */\n      mstore\n        /* \"#utility.yul\":2655:2705   */\n      pop\n      pop\n      jump\t// out\n        /* \"#utility.yul\":2711:3075   */\n    tag_152:\n      0x00\n        /* \"#utility.yul\":2827:2866   */\n      tag_154\n        /* \"#utility.yul\":2860:2865   */\n      dup3\n        /* \"#utility.yul\":2827:2866   */\n      tag_155\n      jump\t// in\n    tag_154:\n        /* \"#utility.yul\":2882:2953   */\n      tag_156\n        /* \"#utility.yul\":2946:2952   */\n      dup2\n        /* \"#utility.yul\":2941:2944   */\n      dup6\n        /* \"#utility.yul\":2882:2953   */\n      tag_157\n      jump\t// in\n    tag_156:\n        /* \"#utility.yul\":2875:2953   */\n      swap4\n      pop\n        /* \"#utility.yul\":2962:3014   */\n      tag_158\n        /* \"#utility.yul\":3007:3013   */\n      dup2\n        /* \"#utility.yul\":3002:3005   */\n      dup6\n        /* \"#utility.yul\":2995:2999   */\n      0x20\n        /* \"#utility.yul\":2988:2993   */\n      dup7\n        /* \"#utility.yul\":2984:3000   */\n      add\n        /* \"#utility.yul\":2962:3014   */\n      tag_159\n      jump\t// in\n    tag_158:\n        /* \"#utility.yul\":3039:3068   */\n      tag_160\n        /* \"#utility.yul\":3061:3067   */\n      dup2\n        /* \"#utility.yul\":3039:3068   */\n      tag_161\n      jump\t// in\n    tag_160:\n        /* \"#utility.yul\":3034:3037   */\n      dup5\n        /* \"#utility.yul\":3030:3069   */\n      add\n        /* \"#utility.yul\":3023:3069   */\n      swap2\n      pop\n        /* \"#utility.yul\":2803:3075   */\n      pop\n      swap3\n      swap2\n      pop\n      pop\n      jump\t// out\n        /* \"#utility.yul\":3081:3199   */\n    tag_162:\n        /* \"#utility.yul\":3168:3192   */\n      tag_164\n        /* \"#utility.yul\":3186:3191   */\n      dup2\n        /* \"#utility.yul\":3168:3192   */\n      tag_165\n      jump\t// in\n    tag_164:\n        /* \"#utility.yul\":3163:3166   */\n      dup3\n        /* \"#utility.yul\":3156:3193   */\n      mstore\n        /* \"#utility.yul\":3146:3199   */\n      pop\n      pop\n      jump\t// out\n        /* \"#utility.yul\":3205:3427   */\n    tag_28:\n      0x00\n        /* \"#utility.yul\":3336:3338   */\n      0x20\n        /* \"#utility.yul\":3325:3334   */\n      dup3\n        /* \"#utility.yul\":3321:3339   */\n      add\n        /* \"#utility.yul\":3313:3339   */\n      swap1\n      pop\n        /* \"#utility.yul\":3349:3420   */\n      tag_167\n        /* \"#utility.yul\":3417:3418   */\n      0x00\n        /* \"#utility.yul\":3406:3415   */\n      dup4\n        /* \"#utility.yul\":3402:3419   */\n      add\n        /* \"#utility.yul\":3393:3399   */\n      dup5\n        /* \"#utility.yul\":3349:3420   */\n      tag_144\n      jump\t// in\n    tag_167:\n        /* \"#utility.yul\":3303:3427   */\n      swap3\n      swap2\n      pop\n      pop\n      jump\t// out\n        /* \"#utility.yul\":3433:3643   */\n    tag_23:\n      0x00\n        /* \"#utility.yul\":3558:3560   */\n      0x20\n        /* \"#utility.yul\":3547:3556   */\n      dup3\n        /* \"#utility.yul\":3543:3561   */\n      add\n        /* \"#utility.yul\":3535:3561   */\n      swap1\n      pop\n        /* \"#utility.yul\":3571:3636   */\n      tag_169\n        /* \"#utility.yul\":3633:3634   */\n      0x00\n        /* \"#utility.yul\":3622:3631   */\n      dup4\n        /* \"#utility.yul\":3618:3635   */\n      add\n        /* \"#utility.yul\":3609:3615   */\n      dup5\n        /* \"#utility.yul\":3571:3636   */\n      tag_148\n      jump\t// in\n    tag_169:\n        /* \"#utility.yul\":3525:3643   */\n      swap3\n      swap2\n      pop\n      pop\n      jump\t// out\n        /* \"#utility.yul\":3649:4424   */\n    tag_34:\n      0x00\n        /* \"#utility.yul\":3922:3925   */\n      0xa0\n        /* \"#utility.yul\":3911:3920   */\n      dup3\n        /* \"#utility.yul\":3907:3926   */\n      add\n        /* \"#utility.yul\":3899:3926   */\n      swap1\n      pop\n        /* \"#utility.yul\":3972:3981   */\n      dup2\n        /* \"#utility.yul\":3966:3970   */\n      dup2\n        /* \"#utility.yul\":3962:3982   */\n      sub\n        /* \"#utility.yul\":3958:3959   */\n      0x00\n        /* \"#utility.yul\":3947:3956   */\n      dup4\n        /* \"#utility.yul\":3943:3960   */\n      add\n        /* \"#utility.yul\":3936:3983   */\n      mstore\n        /* \"#utility.yul\":4000:4078   */\n      tag_171\n        /* \"#utility.yul\":4073:4077   */\n      dup2\n        /* \"#utility.yul\":4064:4070   */\n      dup9\n        /* \"#utility.yul\":4000:4078   */\n      tag_152\n      jump\t// in\n    tag_171:\n        /* \"#utility.yul\":3992:4078   */\n      swap1\n      pop\n        /* \"#utility.yul\":4088:4160   */\n      tag_172\n        /* \"#utility.yul\":4156:4158   */\n      0x20\n        /* \"#utility.yul\":4145:4154   */\n      dup4\n        /* \"#utility.yul\":4141:4159   */\n      add\n        /* \"#utility.yul\":4132:4138   */\n      dup8\n        /* \"#utility.yul\":4088:4160   */\n      tag_162\n      jump\t// in\n    tag_172:\n        /* \"#utility.yul\":4170:4258   */\n      tag_173\n        /* \"#utility.yul\":4254:4256   */\n      0x40\n        /* \"#utility.yul\":4243:4252   */\n      dup4\n        /* \"#utility.yul\":4239:4257   */\n      add\n        /* \"#utility.yul\":4230:4236   */\n      dup7\n        /* \"#utility.yul\":4170:4258   */\n      tag_140\n      jump\t// in\n    tag_173:\n        /* \"#utility.yul\":4268:4334   */\n      tag_174\n        /* \"#utility.yul\":4330:4332   */\n      0x60\n        /* \"#utility.yul\":4319:4328   */\n      dup4\n        /* \"#utility.yul\":4315:4333   */\n      add\n        /* \"#utility.yul\":4306:4312   */\n      dup6\n        /* \"#utility.yul\":4268:4334   */\n      tag_148\n      jump\t// in\n    tag_174:\n        /* \"#utility.yul\":4344:4417   */\n      tag_175\n        /* \"#utility.yul\":4412:4415   */\n      0x80\n        /* \"#utility.yul\":4401:4410   */\n      dup4\n        /* \"#utility.yul\":4397:4416   */\n      add\n        /* \"#utility.yul\":4388:4394   */\n      dup5\n        /* \"#utility.yul\":4344:4417   */\n      tag_162\n      jump\t// in\n    tag_175:\n        /* \"#utility.yul\":3889:4424   */\n      swap7\n      swap6\n      pop\n      pop\n      pop\n      pop\n      pop\n      pop\n      jump\t// out\n        /* \"#utility.yul\":4430:4652   */\n    tag_39:\n      0x00\n        /* \"#utility.yul\":4561:4563   */\n      0x20\n        /* \"#utility.yul\":4550:4559   */\n      dup3\n        /* \"#utility.yul\":4546:4564   */\n      add\n        /* \"#utility.yul\":4538:4564   */\n      swap1\n      pop\n        /* \"#utility.yul\":4574:4645   */\n      tag_177\n        /* \"#utility.yul\":4642:4643   */\n      0x00\n        /* \"#utility.yul\":4631:4640   */\n      dup4\n        /* \"#utility.yul\":4627:4644   */\n      add\n        /* \"#utility.yul\":4618:4624   */\n      dup5\n        /* \"#utility.yul\":4574:4645   */\n      tag_162\n      jump\t// in\n    tag_177:\n        /* \"#utility.yul\":4528:4652   */\n      swap3\n      swap2\n      pop\n      pop\n      jump\t// out\n        /* \"#utility.yul\":4658:4941   */\n    tag_108:\n      0x00\n        /* \"#utility.yul\":4724:4726   */\n      0x40\n        /* \"#utility.yul\":4718:4727   */\n      mload\n        /* \"#utility.yul\":4708:4727   */\n      swap1\n      pop\n        /* \"#utility.yul\":4766:4770   */\n      dup2\n        /* \"#utility.yul\":4758:4764   */\n      dup2\n        /* \"#utility.yul\":4754:4771   */\n      add\n        /* \"#utility.yul\":4873:4879   */\n      dup2\n        /* \"#utility.yul\":4861:4871   */\n      dup2\n        /* \"#utility.yul\":4858:4880   */\n      lt\n        /* \"#utility.yul\":4837:4855   */\n      0xffffffffffffffff\n        /* \"#utility.yul\":4825:4835   */\n      dup3\n        /* \"#utility.yul\":4822:4856   */\n      gt\n        /* \"#utility.yul\":4819:4881   */\n      or\n        /* \"#utility.yul\":4816:4818   */\n      iszero\n      tag_179\n      jumpi\n        /* \"#utility.yul\":4884:4902   */\n      tag_180\n      tag_181\n      jump\t// in\n    tag_180:\n        /* \"#utility.yul\":4816:4818   */\n    tag_179:\n        /* \"#utility.yul\":4924:4934   */\n      dup1\n        /* \"#utility.yul\":4920:4922   */\n      0x40\n        /* \"#utility.yul\":4913:4935   */\n      mstore\n        /* \"#utility.yul\":4698:4941   */\n      pop\n      swap2\n      swap1\n      pop\n      jump\t// out\n        /* \"#utility.yul\":4947:5279   */\n    tag_107:\n      0x00\n        /* \"#utility.yul\":5099:5117   */\n      0xffffffffffffffff\n        /* \"#utility.yul\":5091:5097   */\n      dup3\n        /* \"#utility.yul\":5088:5118   */\n      gt\n        /* \"#utility.yul\":5085:5087   */\n      iszero\n      tag_183\n      jumpi\n        /* \"#utility.yul\":5121:5139   */\n      tag_184\n      tag_181\n      jump\t// in\n    tag_184:\n        /* \"#utility.yul\":5085:5087   */\n    tag_183:\n        /* \"#utility.yul\":5206:5210   */\n      0x1f\n        /* \"#utility.yul\":5202:5211   */\n      not\n        /* \"#utility.yul\":5195:5199   */\n      0x1f\n        /* \"#utility.yul\":5187:5193   */\n      dup4\n        /* \"#utility.yul\":5183:5200   */\n      add\n        /* \"#utility.yul\":5179:5212   */\n      and\n        /* \"#utility.yul\":5171:5212   */\n      swap1\n      pop\n        /* \"#utility.yul\":5267:5271   */\n      0x20\n        /* \"#utility.yul\":5261:5265   */\n      dup2\n        /* \"#utility.yul\":5257:5272   */\n      add\n        /* \"#utility.yul\":5249:5272   */\n      swap1\n      pop\n        /* \"#utility.yul\":5014:5279   */\n      swap2\n      swap1\n      pop\n      jump\t// out\n        /* \"#utility.yul\":5285:5384   */\n    tag_155:\n      0x00\n        /* \"#utility.yul\":5371:5376   */\n      dup2\n        /* \"#utility.yul\":5365:5377   */\n      mload\n        /* \"#utility.yul\":5355:5377   */\n      swap1\n      pop\n        /* \"#utility.yul\":5344:5384   */\n      swap2\n      swap1\n      pop\n      jump\t// out\n        /* \"#utility.yul\":5390:5559   */\n    tag_157:\n      0x00\n        /* \"#utility.yul\":5508:5514   */\n      dup3\n        /* \"#utility.yul\":5503:5506   */\n      dup3\n        /* \"#utility.yul\":5496:5515   */\n      mstore\n        /* \"#utility.yul\":5548:5552   */\n      0x20\n        /* \"#utility.yul\":5543:5546   */\n      dup3\n        /* \"#utility.yul\":5539:5553   */\n      add\n        /* \"#utility.yul\":5524:5553   */\n      swap1\n      pop\n        /* \"#utility.yul\":5486:5559   */\n      swap3\n      swap2\n      pop\n      pop\n      jump\t// out\n        /* \"#utility.yul\":5565:5750   */\n    tag_61:\n      0x00\n        /* \"#utility.yul\":5622:5642   */\n      tag_188\n        /* \"#utility.yul\":5640:5641   */\n      dup3\n        /* \"#utility.yul\":5622:5642   */\n      tag_165\n      jump\t// in\n    tag_188:\n        /* \"#utility.yul\":5617:5642   */\n      swap2\n      pop\n        /* \"#utility.yul\":5656:5676   */\n      tag_189\n        /* \"#utility.yul\":5674:5675   */\n      dup4\n        /* \"#utility.yul\":5656:5676   */\n      tag_165\n      jump\t// in\n    tag_189:\n        /* \"#utility.yul\":5651:5676   */\n      swap3\n      pop\n        /* \"#utility.yul\":5695:5696   */\n      dup3\n        /* \"#utility.yul\":5685:5687   */\n      tag_190\n      jumpi\n        /* \"#utility.yul\":5700:5718   */\n      tag_191\n      tag_192\n      jump\t// in\n    tag_191:\n        /* \"#utility.yul\":5685:5687   */\n    tag_190:\n        /* \"#utility.yul\":5742:5743   */\n      dup3\n        /* \"#utility.yul\":5739:5740   */\n      dup3\n        /* \"#utility.yul\":5735:5744   */\n      div\n        /* \"#utility.yul\":5730:5744   */\n      swap1\n      pop\n        /* \"#utility.yul\":5607:5750   */\n      swap3\n      swap2\n      pop\n      pop\n      jump\t// out\n        /* \"#utility.yul\":5756:5852   */\n    tag_147:\n      0x00\n        /* \"#utility.yul\":5822:5846   */\n      tag_194\n        /* \"#utility.yul\":5840:5845   */\n      dup3\n        /* \"#utility.yul\":5822:5846   */\n      tag_195\n      jump\t// in\n    tag_194:\n        /* \"#utility.yul\":5811:5846   */\n      swap1\n      pop\n        /* \"#utility.yul\":5801:5852   */\n      swap2\n      swap1\n      pop\n      jump\t// out\n        /* \"#utility.yul\":5858:5962   */\n    tag_143:\n      0x00\n        /* \"#utility.yul\":5932:5956   */\n      tag_197\n        /* \"#utility.yul\":5950:5955   */\n      dup3\n        /* \"#utility.yul\":5932:5956   */\n      tag_195\n      jump\t// in\n    tag_197:\n        /* \"#utility.yul\":5921:5956   */\n      swap1\n      pop\n        /* \"#utility.yul\":5911:5962   */\n      swap2\n      swap1\n      pop\n      jump\t// out\n        /* \"#utility.yul\":5968:6058   */\n    tag_151:\n      0x00\n        /* \"#utility.yul\":6045:6050   */\n      dup2\n        /* \"#utility.yul\":6038:6051   */\n      iszero\n        /* \"#utility.yul\":6031:6052   */\n      iszero\n        /* \"#utility.yul\":6020:6052   */\n      swap1\n      pop\n        /* \"#utility.yul\":6010:6058   */\n      swap2\n      swap1\n      pop\n      jump\t// out\n        /* \"#utility.yul\":6064:6190   */\n    tag_195:\n      0x00\n        /* \"#utility.yul\":6141:6183   */\n      0xffffffffffffffffffffffffffffffffffffffff\n        /* \"#utility.yul\":6134:6139   */\n      dup3\n        /* \"#utility.yul\":6130:6184   */\n      and\n        /* \"#utility.yul\":6119:6184   */\n      swap1\n      pop\n        /* \"#utility.yul\":6109:6190   */\n      swap2\n      swap1\n      pop\n      jump\t// out\n        /* \"#utility.yul\":6196:6273   */\n    tag_165:\n      0x00\n        /* \"#utility.yul\":6262:6267   */\n      dup2\n        /* \"#utility.yul\":6251:6267   */\n      swap1\n      pop\n        /* \"#utility.yul\":6241:6273   */\n      swap2\n      swap1\n      pop\n      jump\t// out\n        /* \"#utility.yul\":6279:6433   */\n    tag_111:\n        /* \"#utility.yul\":6363:6369   */\n      dup3\n        /* \"#utility.yul\":6358:6361   */\n      dup2\n        /* \"#utility.yul\":6353:6356   */\n      dup4\n        /* \"#utility.yul\":6340:6370   */\n      calldatacopy\n        /* \"#utility.yul\":6425:6426   */\n      0x00\n        /* \"#utility.yul\":6416:6422   */\n      dup4\n        /* \"#utility.yul\":6411:6414   */\n      dup4\n        /* \"#utility.yul\":6407:6423   */\n      add\n        /* \"#utility.yul\":6400:6427   */\n      mstore\n        /* \"#utility.yul\":6330:6433   */\n      pop\n      pop\n      pop\n      jump\t// out\n        /* \"#utility.yul\":6439:6746   */\n    tag_159:\n        /* \"#utility.yul\":6507:6508   */\n      0x00\n        /* \"#utility.yul\":6517:6630   */\n    tag_203:\n        /* \"#utility.yul\":6531:6537   */\n      dup4\n        /* \"#utility.yul\":6528:6529   */\n      dup2\n        /* \"#utility.yul\":6525:6538   */\n      lt\n        /* \"#utility.yul\":6517:6630   */\n      iszero\n      tag_205\n      jumpi\n        /* \"#utility.yul\":6616:6617   */\n      dup1\n        /* \"#utility.yul\":6611:6614   */\n      dup3\n        /* \"#utility.yul\":6607:6618   */\n      add\n        /* \"#utility.yul\":6601:6619   */\n      mload\n        /* \"#utility.yul\":6597:6598   */\n      dup2\n        /* \"#utility.yul\":6592:6595   */\n      dup5\n        /* \"#utility.yul\":6588:6599   */\n      add\n        /* \"#utility.yul\":6581:6620   */\n      mstore\n        /* \"#utility.yul\":6553:6555   */\n      0x20\n        /* \"#utility.yul\":6550:6551   */\n      dup2\n        /* \"#utility.yul\":6546:6556   */\n      add\n        /* \"#utility.yul\":6541:6556   */\n      swap1\n      pop\n        /* \"#utility.yul\":6517:6630   */\n      jump(tag_203)\n    tag_205:\n        /* \"#utility.yul\":6648:6654   */\n      dup4\n        /* \"#utility.yul\":6645:6646   */\n      dup2\n        /* \"#utility.yul\":6642:6655   */\n      gt\n        /* \"#utility.yul\":6639:6641   */\n      iszero\n      tag_206\n      jumpi\n        /* \"#utility.yul\":6728:6729   */\n      0x00\n        /* \"#utility.yul\":6719:6725   */\n      dup5\n        /* \"#utility.yul\":6714:6717   */\n      dup5\n        /* \"#utility.yul\":6710:6726   */\n      add\n        /* \"#utility.yul\":6703:6730   */\n      mstore\n        /* \"#utility.yul\":6639:6641   */\n    tag_206:\n        /* \"#utility.yul\":6488:6746   */\n      pop\n      pop\n      pop\n      pop\n      jump\t// out\n        /* \"#utility.yul\":6752:7072   */\n    tag_69:\n      0x00\n        /* \"#utility.yul\":6833:6834   */\n      0x02\n        /* \"#utility.yul\":6827:6831   */\n      dup3\n        /* \"#utility.yul\":6823:6835   */\n      div\n        /* \"#utility.yul\":6813:6835   */\n      swap1\n      pop\n        /* \"#utility.yul\":6880:6881   */\n      0x01\n        /* \"#utility.yul\":6874:6878   */\n      dup3\n        /* \"#utility.yul\":6870:6882   */\n      and\n        /* \"#utility.yul\":6901:6919   */\n      dup1\n        /* \"#utility.yul\":6891:6893   */\n      tag_208\n      jumpi\n        /* \"#utility.yul\":6957:6961   */\n      0x7f\n        /* \"#utility.yul\":6949:6955   */\n      dup3\n        /* \"#utility.yul\":6945:6962   */\n      and\n        /* \"#utility.yul\":6935:6962   */\n      swap2\n      pop\n        /* \"#utility.yul\":6891:6893   */\n    tag_208:\n        /* \"#utility.yul\":7019:7021   */\n      0x20\n        /* \"#utility.yul\":7011:7017   */\n      dup3\n        /* \"#utility.yul\":7008:7022   */\n      lt\n        /* \"#utility.yul\":6988:7006   */\n      dup2\n        /* \"#utility.yul\":6985:7023   */\n      eq\n        /* \"#utility.yul\":6982:6984   */\n      iszero\n      tag_209\n      jumpi\n        /* \"#utility.yul\":7038:7056   */\n      tag_210\n      tag_211\n      jump\t// in\n    tag_210:\n        /* \"#utility.yul\":6982:6984   */\n    tag_209:\n        /* \"#utility.yul\":6803:7072   */\n      pop\n      swap2\n      swap1\n      pop\n      jump\t// out\n        /* \"#utility.yul\":7078:7311   */\n    tag_83:\n      0x00\n        /* \"#utility.yul\":7140:7164   */\n      tag_213\n        /* \"#utility.yul\":7158:7163   */\n      dup3\n        /* \"#utility.yul\":7140:7164   */\n      tag_165\n      jump\t// in\n    tag_213:\n        /* \"#utility.yul\":7131:7164   */\n      swap2\n      pop\n        /* \"#utility.yul\":7186:7252   */\n      0xffffffffffffffffffffffffffffffffffffffffffffffffffffffffffffffff\n        /* \"#utility.yul\":7179:7184   */\n      dup3\n        /* \"#utility.yul\":7176:7253   */\n      eq\n        /* \"#utility.yul\":7173:7175   */\n      iszero\n      tag_214\n      jumpi\n        /* \"#utility.yul\":7256:7274   */\n      tag_215\n      tag_216\n      jump\t// in\n    tag_215:\n        /* \"#utility.yul\":7173:7175   */\n    tag_214:\n        /* \"#utility.yul\":7303:7304   */\n      0x01\n        /* \"#utility.yul\":7296:7301   */\n      dup3\n        /* \"#utility.yul\":7292:7305   */\n      add\n        /* \"#utility.yul\":7285:7305   */\n      swap1\n      pop\n        /* \"#utility.yul\":7121:7311   */\n      swap2\n      swap1\n      pop\n      jump\t// out\n        /* \"#utility.yul\":7317:7497   */\n    tag_216:\n        /* \"#utility.yul\":7365:7442   */\n      0x4e487b7100000000000000000000000000000000000000000000000000000000\n        /* \"#utility.yul\":7362:7363   */\n      0x00\n        /* \"#utility.yul\":7355:7443   */\n      mstore\n        /* \"#utility.yul\":7462:7466   */\n      0x11\n        /* \"#utility.yul\":7459:7460   */\n      0x04\n        /* \"#utility.yul\":7452:7467   */\n      mstore\n        /* \"#utility.yul\":7486:7490   */\n      0x24\n        /* \"#utility.yul\":7483:7484   */\n      0x00\n        /* \"#utility.yul\":7476:7491   */\n      revert\n        /* \"#utility.yul\":7503:7683   */\n    tag_192:\n        /* \"#utility.yul\":7551:7628   */\n      0x4e487b7100000000000000000000000000000000000000000000000000000000\n        /* \"#utility.yul\":7548:7549   */\n      0x00\n        /* \"#utility.yul\":7541:7629   */\n      mstore\n        /* \"#utility.yul\":7648:7652   */\n      0x12\n        /* \"#utility.yul\":7645:7646   */\n      0x04\n        /* \"#utility.yul\":7638:7653   */\n      mstore\n        /* \"#utility.yul\":7672:7676   */\n      0x24\n        /* \"#utility.yul\":7669:7670   */\n      0x00\n        /* \"#utility.yul\":7662:7677   */\n      revert\n        /* \"#utility.yul\":7689:7869   */\n    tag_211:\n        /* \"#utility.yul\":7737:7814   */\n      0x4e487b7100000000000000000000000000000000000000000000000000000000\n        /* \"#utility.yul\":7734:7735   */\n      0x00\n        /* \"#utility.yul\":7727:7815   */\n      mstore\n        /* \"#utility.yul\":7834:7838   */\n      0x22\n        /* \"#utility.yul\":7831:7832   */\n      0x04\n        /* \"#utility.yul\":7824:7839   */\n      mstore\n        /* \"#utility.yul\":7858:7862   */\n      0x24\n        /* \"#utility.yul\":7855:7856   */\n      0x00\n        /* \"#utility.yul\":7848:7863   */\n      revert\n        /* \"#utility.yul\":7875:8055   */\n    tag_181:\n        /* \"#utility.yul\":7923:8000   */\n      0x4e487b7100000000000000000000000000000000000000000000000000000000\n        /* \"#utility.yul\":7920:7921   */\n      0x00\n        /* \"#utility.yul\":7913:8001   */\n      mstore\n        /* \"#utility.yul\":8020:8024   */\n      0x41\n        /* \"#utility.yul\":8017:8018   */\n      0x04\n        /* \"#utility.yul\":8010:8025   */\n      mstore\n        /* \"#utility.yul\":8044:8048   */\n      0x24\n        /* \"#utility.yul\":8041:8042   */\n      0x00\n        /* \"#utility.yul\":8034:8049   */\n      revert\n        /* \"#utility.yul\":8061:8163   */\n    tag_161:\n      0x00\n        /* \"#utility.yul\":8153:8155   */\n      0x1f\n        /* \"#utility.yul\":8149:8156   */\n      not\n        /* \"#utility.yul\":8144:8146   */\n      0x1f\n        /* \"#utility.yul\":8137:8142   */\n      dup4\n        /* \"#utility.yul\":8133:8147   */\n      add\n        /* \"#utility.yul\":8129:8157   */\n      and\n        /* \"#utility.yul\":8119:8157   */\n      swap1\n      pop\n        /* \"#utility.yul\":8109:8163   */\n      swap2\n      swap1\n      pop\n      jump\t// out\n        /* \"#utility.yul\":8169:8291   */\n    tag_115:\n        /* \"#utility.yul\":8242:8266   */\n      tag_223\n        /* \"#utility.yul\":8260:8265   */\n      dup2\n        /* \"#utility.yul\":8242:8266   */\n      tag_147\n      jump\t// in\n    tag_223:\n        /* \"#utility.yul\":8235:8240   */\n      dup2\n        /* \"#utility.yul\":8232:8267   */\n      eq\n        /* \"#utility.yul\":8222:8224   */\n      tag_224\n      jumpi\n        /* \"#utility.yul\":8281:8282   */\n      0x00\n        /* \"#utility.yul\":8278:8279   */\n      dup1\n        /* \"#utility.yul\":8271:8283   */\n      revert\n        /* \"#utility.yul\":8222:8224   */\n    tag_224:\n        /* \"#utility.yul\":8212:8291   */\n      pop\n      jump\t// out\n        /* \"#utility.yul\":8297:8435   */\n    tag_119:\n        /* \"#utility.yul\":8378:8410   */\n      tag_226\n        /* \"#utility.yul\":8404:8409   */\n      dup2\n        /* \"#utility.yul\":8378:8410   */\n      tag_143\n      jump\t// in\n    tag_226:\n        /* \"#utility.yul\":8371:8376   */\n      dup2\n        /* \"#utility.yul\":8368:8411   */\n      eq\n        /* \"#utility.yul\":8358:8360   */\n      tag_227\n      jumpi\n        /* \"#utility.yul\":8425:8426   */\n      0x00\n        /* \"#utility.yul\":8422:8423   */\n      dup1\n        /* \"#utility.yul\":8415:8427   */\n      revert\n        /* \"#utility.yul\":8358:8360   */\n    tag_227:\n        /* \"#utility.yul\":8348:8435   */\n      pop\n      jump\t// out\n        /* \"#utility.yul\":8441:8563   */\n    tag_127:\n        /* \"#utility.yul\":8514:8538   */\n      tag_229\n        /* \"#utility.yul\":8532:8537   */\n      dup2\n        /* \"#utility.yul\":8514:8538   */\n      tag_165\n      jump\t// in\n    tag_229:\n        /* \"#utility.yul\":8507:8512   */\n      dup2\n        /* \"#utility.yul\":8504:8539   */\n      eq\n        /* \"#utility.yul\":8494:8496   */\n      tag_230\n      jumpi\n        /* \"#utility.yul\":8553:8554   */\n      0x00\n        /* \"#utility.yul\":8550:8551   */\n      dup1\n        /* \"#utility.yul\":8543:8555   */\n      revert\n        /* \"#utility.yul\":8494:8496   */\n    tag_230:\n        /* \"#utility.yul\":8484:8563   */\n      pop\n      jump\t// out\n\n    auxdata: 0xa2646970667358221220f3ee37e01aface6a3cbb62bd2239be09194e539aaceac45d49274958387497f864736f6c63430008000033\n}\n","bytecode":{"linkReferences":{},"object":"60806040523480156200001157600080fd5b5060405162000fb738038062000fb78339818101604052810190620000379190620000b4565b806000806101000a81548173ffffffffffffffffffffffffffffffffffffffff021916908373ffffffffffffffffffffffffffffffffffffffff16021790555081600281905550505062000167565b600081519050620000978162000133565b92915050565b600081519050620000ae816200014d565b92915050565b60008060408385031215620000c857600080fd5b6000620000d8858286016200009d565b9250506020620000eb8582860162000086565b9150509250929050565b6000620001028262000109565b9050919050565b600073ffffffffffffffffffffffffffffffffffffffff82169050919050565b6000819050919050565b6200013e81620000f5565b81146200014a57600080fd5b50565b620001588162000129565b81146200016457600080fd5b50565b610e4080620001776000396000f3fe6080604052600436106100865760003560e01c806382fde0931161005957806382fde0931461015d5780638a9cfd5514610188578063aaffadf3146101b1578063d7bb99ba146101dc578063d7d1bbdb146101e657610086565b8063034410061461008b5780630a144391146100b4578063481c6a75146100f157806381d12c581461011c575b600080fd5b34801561009757600080fd5b506100b260048036038101906100ad91906109ea565b61020f565b005b3480156100c057600080fd5b506100db60048036038101906100d6919061095a565b61037d565b6040516100e89190610aa3565b60405180910390f35b3480156100fd57600080fd5b5061010661039d565b6040516101139190610a88565b60405180910390f35b34801561012857600080fd5b50610143600480360381019061013e91906109ea565b6103c1565b604051610154959493929190610abe565b60405180910390f35b34801561016957600080fd5b506101726104bc565b60405161017f9190610b18565b60405180910390f35b34801561019457600080fd5b506101af60048036038101906101aa9190610983565b6104c2565b005b3480156101bd57600080fd5b506101c66105cf565b6040516101d39190610b18565b60405180910390f35b6101e46105d5565b005b3480156101f257600080fd5b5061020d600480360381019061020891906109ea565b610656565b005b60008054906101000a900473ffffffffffffffffffffffffffffffffffffffff1673ffffffffffffffffffffffffffffffffffffffff163373ffffffffffffffffffffffffffffffffffffffff161461026757600080fd5b6000600182815481106102a3577f4e487b7100000000000000000000000000000000000000000000000000000000600052603260045260246000fd5b9060005260206000209060050201905060026004546102c29190610bb0565b8160030154116102d157600080fd5b8060020160149054906101000a900460ff16156102ed57600080fd5b8060020160009054906101000a900473ffffffffffffffffffffffffffffffffffffffff1673ffffffffffffffffffffffffffffffffffffffff166108fc82600101549081150290604051600060405180830381858888f1935050505015801561035b573d6000803e3d6000fd5b5060018160020160146101000a81548160ff0219169083151502179055505050565b60036020528060005260406000206000915054906101000a900460ff1681565b60008054906101000a900473ffffffffffffffffffffffffffffffffffffffff1681565b600181815481106103d157600080fd5b90600052602060002090600502016000915090508060000180546103f490610c7d565b80601f016020809104026020016040519081016040528092919081815260200182805461042090610c7d565b801561046d5780601f106104425761010080835404028352916020019161046d565b820191906000526020600020905b81548152906001019060200180831161045057829003601f168201915b5050505050908060010154908060020160009054906101000a900473ffffffffffffffffffffffffffffffffffffffff16908060020160149054906101000a900460ff16908060030154905085565b60045481565b60008054906101000a900473ffffffffffffffffffffffffffffffffffffffff1673ffffffffffffffffffffffffffffffffffffffff163373ffffffffffffffffffffffffffffffffffffffff161461051a57600080fd5b600060018081600181540180825580915050039060005260206000209060050201905083816000019080519060200190610555929190610810565b50828160010181905550818160020160006101000a81548173ffffffffffffffffffffffffffffffffffffffff021916908373ffffffffffffffffffffffffffffffffffffffff16021790555060008160020160146101000a81548160ff0219169083151502179055506000816003018190555050505050565b60025481565b6002543410156105e457600080fd5b6001600360003373ffffffffffffffffffffffffffffffffffffffff1673ffffffffffffffffffffffffffffffffffffffff16815260200190815260200160002060006101000a81548160ff0219169083151502179055506004600081548092919061064f90610caf565b9190505550565b600060018281548110610692577f4e487b7100000000000000000000000000000000000000000000000000000000600052603260045260246000fd5b90600052602060002090600502019050600360003373ffffffffffffffffffffffffffffffffffffffff1673ffffffffffffffffffffffffffffffffffffffff16815260200190815260200160002060009054906101000a900460ff166106f857600080fd5b8060040160003373ffffffffffffffffffffffffffffffffffffffff1673ffffffffffffffffffffffffffffffffffffffff16815260200190815260200160002060009054906101000a900460ff161561075157600080fd5b60018160040160003373ffffffffffffffffffffffffffffffffffffffff1673ffffffffffffffffffffffffffffffffffffffff16815260200190815260200160002060006101000a81548160ff021916908315150217905550600182815481106107e5577f4e487b7100000000000000000000000000000000000000000000000000000000600052603260045260246000fd5b9060005260206000209060050201600301600081548092919061080790610caf565b91905055505050565b82805461081c90610c7d565b90600052602060002090601f01602090048101928261083e5760008555610885565b82601f1061085757805160ff1916838001178555610885565b82800160010185558215610885579182015b82811115610884578251825591602001919060010190610869565b5b5090506108929190610896565b5090565b5b808211156108af576000816000905550600101610897565b5090565b60006108c66108c184610b64565b610b33565b9050828152602081018484840111156108de57600080fd5b6108e9848285610c3b565b509392505050565b60008135905061090081610dc5565b92915050565b60008135905061091581610ddc565b92915050565b600082601f83011261092c57600080fd5b813561093c8482602086016108b3565b91505092915050565b60008135905061095481610df3565b92915050565b60006020828403121561096c57600080fd5b600061097a848285016108f1565b91505092915050565b60008060006060848603121561099857600080fd5b600084013567ffffffffffffffff8111156109b257600080fd5b6109be8682870161091b565b93505060206109cf86828701610945565b92505060406109e086828701610906565b9150509250925092565b6000602082840312156109fc57600080fd5b6000610a0a84828501610945565b91505092915050565b610a1c81610bf3565b82525050565b610a2b81610be1565b82525050565b610a3a81610c05565b82525050565b6000610a4b82610b94565b610a558185610b9f565b9350610a65818560208601610c4a565b610a6e81610db4565b840191505092915050565b610a8281610c31565b82525050565b6000602082019050610a9d6000830184610a22565b92915050565b6000602082019050610ab86000830184610a31565b92915050565b600060a0820190508181036000830152610ad88188610a40565b9050610ae76020830187610a79565b610af46040830186610a13565b610b016060830185610a31565b610b0e6080830184610a79565b9695505050505050565b6000602082019050610b2d6000830184610a79565b92915050565b6000604051905081810181811067ffffffffffffffff82111715610b5a57610b59610d85565b5b8060405250919050565b600067ffffffffffffffff821115610b7f57610b7e610d85565b5b601f19601f8301169050602081019050919050565b600081519050919050565b600082825260208201905092915050565b6000610bbb82610c31565b9150610bc683610c31565b925082610bd657610bd5610d27565b5b828204905092915050565b6000610bec82610c11565b9050919050565b6000610bfe82610c11565b9050919050565b60008115159050919050565b600073ffffffffffffffffffffffffffffffffffffffff82169050919050565b6000819050919050565b82818337600083830152505050565b60005b83811015610c68578082015181840152602081019050610c4d565b83811115610c77576000848401525b50505050565b60006002820490506001821680610c9557607f821691505b60208210811415610ca957610ca8610d56565b5b50919050565b6000610cba82610c31565b91507fffffffffffffffffffffffffffffffffffffffffffffffffffffffffffffffff821415610ced57610cec610cf8565b5b600182019050919050565b7f4e487b7100000000000000000000000000000000000000000000000000000000600052601160045260246000fd5b7f4e487b7100000000000000000000000000000000000000000000000000000000600052601260045260246000fd5b7f4e487b7100000000000000000000000000000000000000000000000000000000600052602260045260246000fd5b7f4e487b7100000000000000000000000000000000000000000000000000000000600052604160045260246000fd5b6000601f19601f8301169050919050565b610dce81610be1565b8114610dd957600080fd5b50565b610de581610bf3565b8114610df057600080fd5b50565b610dfc81610c31565b8114610e0757600080fd5b5056fea2646970667358221220f3ee37e01aface6a3cbb62bd2239be09194e539aaceac45d49274958387497f864736f6c63430008000033","opcodes":"PUSH1 0x80 PUSH1 0x40 MSTORE CALLVALUE DUP1 ISZERO PUSH3 0x11 JUMPI PUSH1 0x0 DUP1 REVERT JUMPDEST POP PUSH1 0x40 MLOAD PUSH3 0xFB7 CODESIZE SUB DUP1 PUSH3 0xFB7 DUP4 CODECOPY DUP2 DUP2 ADD PUSH1 0x40 MSTORE DUP2 ADD SWAP1 PUSH3 0x37 SWAP2 SWAP1 PUSH3 0xB4 JUMP JUMPDEST DUP1 PUSH1 0x0 DUP1 PUSH2 0x100 EXP DUP2 SLOAD DUP2 PUSH20 0xFFFFFFFFFFFFFFFFFFFFFFFFFFFFFFFFFFFFFFFF MUL NOT AND SWAP1 DUP4 PUSH20 0xFFFFFFFFFFFFFFFFFFFFFFFFFFFFFFFFFFFFFFFF AND MUL OR SWAP1 SSTORE POP DUP2 PUSH1 0x2 DUP2 SWAP1 SSTORE POP POP POP PUSH3 0x167 JUMP JUMPDEST PUSH1 0x0 DUP2 MLOAD SWAP1 POP PUSH3 0x97 DUP2 PUSH3 0x133 JUMP JUMPDEST SWAP3 SWAP2 POP POP JUMP JUMPDEST PUSH1 0x0 DUP2 MLOAD SWAP1 POP PUSH3 0xAE DUP2 PUSH3 0x14D JUMP JUMPDEST SWAP3 SWAP2 POP POP JUMP JUMPDEST PUSH1 0x0 DUP1 PUSH1 0x40 DUP4 DUP6 SUB SLT ISZERO PUSH3 0xC8 JUMPI PUSH1 0x0 DUP1 REVERT JUMPDEST PUSH1 0x0 PUSH3 0xD8 DUP6 DUP3 DUP7 ADD PUSH3 0x9D JUMP JUMPDEST SWAP3 POP POP PUSH1 0x20 PUSH3 0xEB DUP6 DUP3 DUP7 ADD PUSH3 0x86 JUMP JUMPDEST SWAP2 POP POP SWAP3 POP SWAP3 SWAP1 POP JUMP JUMPDEST PUSH1 0x0 PUSH3 0x102 DUP3 PUSH3 0x109 JUMP JUMPDEST SWAP1 POP SWAP2 SWAP1 POP JUMP JUMPDEST PUSH1 0x0 PUSH20 0xFFFFFFFFFFFFFFFFFFFFFFFFFFFFFFFFFFFFFFFF DUP3 AND SWAP1 POP SWAP2 SWAP1 POP JUMP JUMPDEST PUSH1 0x0 DUP2 SWAP1 POP SWAP2 SWAP1 POP JUMP JUMPDEST PUSH3 0x13E DUP2 PUSH3 0xF5 JUMP JUMPDEST DUP2 EQ PUSH3 0x14A JUMPI PUSH1 0x0 DUP1 REVERT JUMPDEST POP JUMP JUMPDEST PUSH3 0x158 DUP2 PUSH3 0x129 JUMP JUMPDEST DUP2 EQ PUSH3 0x164 JUMPI PUSH1 0x0 DUP1 REVERT JUMPDEST POP JUMP JUMPDEST PUSH2 0xE40 DUP1 PUSH3 0x177 PUSH1 0x0 CODECOPY PUSH1 0x0 RETURN INVALID PUSH1 0x80 PUSH1 0x40 MSTORE PUSH1 0x4 CALLDATASIZE LT PUSH2 0x86 JUMPI PUSH1 0x0 CALLDATALOAD PUSH1 0xE0 SHR DUP1 PUSH4 0x82FDE093 GT PUSH2 0x59 JUMPI DUP1 PUSH4 0x82FDE093 EQ PUSH2 0x15D JUMPI DUP1 PUSH4 0x8A9CFD55 EQ PUSH2 0x188 JUMPI DUP1 PUSH4 0xAAFFADF3 EQ PUSH2 0x1B1 JUMPI DUP1 PUSH4 0xD7BB99BA EQ PUSH2 0x1DC JUMPI DUP1 PUSH4 0xD7D1BBDB EQ PUSH2 0x1E6 JUMPI PUSH2 0x86 JUMP JUMPDEST DUP1 PUSH4 0x3441006 EQ PUSH2 0x8B JUMPI DUP1 PUSH4 0xA144391 EQ PUSH2 0xB4 JUMPI DUP1 PUSH4 0x481C6A75 EQ PUSH2 0xF1 JUMPI DUP1 PUSH4 0x81D12C58 EQ PUSH2 0x11C JUMPI JUMPDEST PUSH1 0x0 DUP1 REVERT JUMPDEST CALLVALUE DUP1 ISZERO PUSH2 0x97 JUMPI PUSH1 0x0 DUP1 REVERT JUMPDEST POP PUSH2 0xB2 PUSH1 0x4 DUP1 CALLDATASIZE SUB DUP2 ADD SWAP1 PUSH2 0xAD SWAP2 SWAP1 PUSH2 0x9EA JUMP JUMPDEST PUSH2 0x20F JUMP JUMPDEST STOP JUMPDEST CALLVALUE DUP1 ISZERO PUSH2 0xC0 JUMPI PUSH1 0x0 DUP1 REVERT JUMPDEST POP PUSH2 0xDB PUSH1 0x4 DUP1 CALLDATASIZE SUB DUP2 ADD SWAP1 PUSH2 0xD6 SWAP2 SWAP1 PUSH2 0x95A JUMP JUMPDEST PUSH2 0x37D JUMP JUMPDEST PUSH1 0x40 MLOAD PUSH2 0xE8 SWAP2 SWAP1 PUSH2 0xAA3 JUMP JUMPDEST PUSH1 0x40 MLOAD DUP1 SWAP2 SUB SWAP1 RETURN JUMPDEST CALLVALUE DUP1 ISZERO PUSH2 0xFD JUMPI PUSH1 0x0 DUP1 REVERT JUMPDEST POP PUSH2 0x106 PUSH2 0x39D JUMP JUMPDEST PUSH1 0x40 MLOAD PUSH2 0x113 SWAP2 SWAP1 PUSH2 0xA88 JUMP JUMPDEST PUSH1 0x40 MLOAD DUP1 SWAP2 SUB SWAP1 RETURN JUMPDEST CALLVALUE DUP1 ISZERO PUSH2 0x128 JUMPI PUSH1 0x0 DUP1 REVERT JUMPDEST POP PUSH2 0x143 PUSH1 0x4 DUP1 CALLDATASIZE SUB DUP2 ADD SWAP1 PUSH2 0x13E SWAP2 SWAP1 PUSH2 0x9EA JUMP JUMPDEST PUSH2 0x3C1 JUMP JUMPDEST PUSH1 0x40 MLOAD PUSH2 0x154 SWAP6 SWAP5 SWAP4 SWAP3 SWAP2 SWAP1 PUSH2 0xABE JUMP JUMPDEST PUSH1 0x40 MLOAD DUP1 SWAP2 SUB SWAP1 RETURN JUMPDEST CALLVALUE DUP1 ISZERO PUSH2 0x169 JUMPI PUSH1 0x0 DUP1 REVERT JUMPDEST POP PUSH2 0x172 PUSH2 0x4BC JUMP JUMPDEST PUSH1 0x40 MLOAD PUSH2 0x17F SWAP2 SWAP1 PUSH2 0xB18 JUMP JUMPDEST PUSH1 0x40 MLOAD DUP1 SWAP2 SUB SWAP1 RETURN JUMPDEST CALLVALUE DUP1 ISZERO PUSH2 0x194 JUMPI PUSH1 0x0 DUP1 REVERT JUMPDEST POP PUSH2 0x1AF PUSH1 0x4 DUP1 CALLDATASIZE SUB DUP2 ADD SWAP1 PUSH2 0x1AA SWAP2 SWAP1 PUSH2 0x983 JUMP JUMPDEST PUSH2 0x4C2 JUMP JUMPDEST STOP JUMPDEST CALLVALUE DUP1 ISZERO PUSH2 0x1BD JUMPI PUSH1 0x0 DUP1 REVERT JUMPDEST POP PUSH2 0x1C6 PUSH2 0x5CF JUMP JUMPDEST PUSH1 0x40 MLOAD PUSH2 0x1D3 SWAP2 SWAP1 PUSH2 0xB18 JUMP JUMPDEST PUSH1 0x40 MLOAD DUP1 SWAP2 SUB SWAP1 RETURN JUMPDEST PUSH2 0x1E4 PUSH2 0x5D5 JUMP JUMPDEST STOP JUMPDEST CALLVALUE DUP1 ISZERO PUSH2 0x1F2 JUMPI PUSH1 0x0 DUP1 REVERT JUMPDEST POP PUSH2 0x20D PUSH1 0x4 DUP1 CALLDATASIZE SUB DUP2 ADD SWAP1 PUSH2 0x208 SWAP2 SWAP1 PUSH2 0x9EA JUMP JUMPDEST PUSH2 0x656 JUMP JUMPDEST STOP JUMPDEST PUSH1 0x0 DUP1 SLOAD SWAP1 PUSH2 0x100 EXP SWAP1 DIV PUSH20 0xFFFFFFFFFFFFFFFFFFFFFFFFFFFFFFFFFFFFFFFF AND PUSH20 0xFFFFFFFFFFFFFFFFFFFFFFFFFFFFFFFFFFFFFFFF AND CALLER PUSH20 0xFFFFFFFFFFFFFFFFFFFFFFFFFFFFFFFFFFFFFFFF AND EQ PUSH2 0x267 JUMPI PUSH1 0x0 DUP1 REVERT JUMPDEST PUSH1 0x0 PUSH1 0x1 DUP3 DUP2 SLOAD DUP2 LT PUSH2 0x2A3 JUMPI PUSH32 0x4E487B7100000000000000000000000000000000000000000000000000000000 PUSH1 0x0 MSTORE PUSH1 0x32 PUSH1 0x4 MSTORE PUSH1 0x24 PUSH1 0x0 REVERT JUMPDEST SWAP1 PUSH1 0x0 MSTORE PUSH1 0x20 PUSH1 0x0 KECCAK256 SWAP1 PUSH1 0x5 MUL ADD SWAP1 POP PUSH1 0x2 PUSH1 0x4 SLOAD PUSH2 0x2C2 SWAP2 SWAP1 PUSH2 0xBB0 JUMP JUMPDEST DUP2 PUSH1 0x3 ADD SLOAD GT PUSH2 0x2D1 JUMPI PUSH1 0x0 DUP1 REVERT JUMPDEST DUP1 PUSH1 0x2 ADD PUSH1 0x14 SWAP1 SLOAD SWAP1 PUSH2 0x100 EXP SWAP1 DIV PUSH1 0xFF AND ISZERO PUSH2 0x2ED JUMPI PUSH1 0x0 DUP1 REVERT JUMPDEST DUP1 PUSH1 0x2 ADD PUSH1 0x0 SWAP1 SLOAD SWAP1 PUSH2 0x100 EXP SWAP1 DIV PUSH20 0xFFFFFFFFFFFFFFFFFFFFFFFFFFFFFFFFFFFFFFFF AND PUSH20 0xFFFFFFFFFFFFFFFFFFFFFFFFFFFFFFFFFFFFFFFF AND PUSH2 0x8FC DUP3 PUSH1 0x1 ADD SLOAD SWAP1 DUP2 ISZERO MUL SWAP1 PUSH1 0x40 MLOAD PUSH1 0x0 PUSH1 0x40 MLOAD DUP1 DUP4 SUB DUP2 DUP6 DUP9 DUP9 CALL SWAP4 POP POP POP POP ISZERO DUP1 ISZERO PUSH2 0x35B JUMPI RETURNDATASIZE PUSH1 0x0 DUP1 RETURNDATACOPY RETURNDATASIZE PUSH1 0x0 REVERT JUMPDEST POP PUSH1 0x1 DUP2 PUSH1 0x2 ADD PUSH1 0x14 PUSH2 0x100 EXP DUP2 SLOAD DUP2 PUSH1 0xFF MUL NOT AND SWAP1 DUP4 ISZERO ISZERO MUL OR SWAP1 SSTORE POP POP POP JUMP JUMPDEST PUSH1 0x3 PUSH1 0x20 MSTORE DUP1 PUSH1 0x0 MSTORE PUSH1 0x40 PUSH1 0x0 KECCAK256 PUSH1 0x0 SWAP2 POP SLOAD SWAP1 PUSH2 0x100 EXP SWAP1 DIV PUSH1 0xFF AND DUP2 JUMP JUMPDEST PUSH1 0x0 DUP1 SLOAD SWAP1 PUSH2 0x100 EXP SWAP1 DIV PUSH20 0xFFFFFFFFFFFFFFFFFFFFFFFFFFFFFFFFFFFFFFFF AND DUP2 JUMP JUMPDEST PUSH1 0x1 DUP2 DUP2 SLOAD DUP2 LT PUSH2 0x3D1 JUMPI PUSH1 0x0 DUP1 REVERT JUMPDEST SWAP1 PUSH1 0x0 MSTORE PUSH1 0x20 PUSH1 0x0 KECCAK256 SWAP1 PUSH1 0x5 MUL ADD PUSH1 0x0 SWAP2 POP SWAP1 POP DUP1 PUSH1 0x0 ADD DUP1 SLOAD PUSH2 0x3F4 SWAP1 PUSH2 0xC7D JUMP JUMPDEST DUP1 PUSH1 0x1F ADD PUSH1 0x20 DUP1 SWAP2 DIV MUL PUSH1 0x20 ADD PUSH1 0x40 MLOAD SWAP1 DUP2 ADD PUSH1 0x40 MSTORE DUP1 SWAP3 SWAP2 SWAP1 DUP2 DUP2 MSTORE PUSH1 0x20 ADD DUP3 DUP1 SLOAD PUSH2 0x420 SWAP1 PUSH2 0xC7D JUMP JUMPDEST DUP1 ISZERO PUSH2 0x46D JUMPI DUP1 PUSH1 0x1F LT PUSH2 0x442 JUMPI PUSH2 0x100 DUP1 DUP4 SLOAD DIV MUL DUP4 MSTORE SWAP2 PUSH1 0x20 ADD SWAP2 PUSH2 0x46D JUMP JUMPDEST DUP3 ADD SWAP2 SWAP1 PUSH1 0x0 MSTORE PUSH1 0x20 PUSH1 0x0 KECCAK256 SWAP1 JUMPDEST DUP2 SLOAD DUP2 MSTORE SWAP1 PUSH1 0x1 ADD SWAP1 PUSH1 0x20 ADD DUP1 DUP4 GT PUSH2 0x450 JUMPI DUP3 SWAP1 SUB PUSH1 0x1F AND DUP3 ADD SWAP2 JUMPDEST POP POP POP POP POP SWAP1 DUP1 PUSH1 0x1 ADD SLOAD SWAP1 DUP1 PUSH1 0x2 ADD PUSH1 0x0 SWAP1 SLOAD SWAP1 PUSH2 0x100 EXP SWAP1 DIV PUSH20 0xFFFFFFFFFFFFFFFFFFFFFFFFFFFFFFFFFFFFFFFF AND SWAP1 DUP1 PUSH1 0x2 ADD PUSH1 0x14 SWAP1 SLOAD SWAP1 PUSH2 0x100 EXP SWAP1 DIV PUSH1 0xFF AND SWAP1 DUP1 PUSH1 0x3 ADD SLOAD SWAP1 POP DUP6 JUMP JUMPDEST PUSH1 0x4 SLOAD DUP2 JUMP JUMPDEST PUSH1 0x0 DUP1 SLOAD SWAP1 PUSH2 0x100 EXP SWAP1 DIV PUSH20 0xFFFFFFFFFFFFFFFFFFFFFFFFFFFFFFFFFFFFFFFF AND PUSH20 0xFFFFFFFFFFFFFFFFFFFFFFFFFFFFFFFFFFFFFFFF AND CALLER PUSH20 0xFFFFFFFFFFFFFFFFFFFFFFFFFFFFFFFFFFFFFFFF AND EQ PUSH2 0x51A JUMPI PUSH1 0x0 DUP1 REVERT JUMPDEST PUSH1 0x0 PUSH1 0x1 DUP1 DUP2 PUSH1 0x1 DUP2 SLOAD ADD DUP1 DUP3 SSTORE DUP1 SWAP2 POP POP SUB SWAP1 PUSH1 0x0 MSTORE PUSH1 0x20 PUSH1 0x0 KECCAK256 SWAP1 PUSH1 0x5 MUL ADD SWAP1 POP DUP4 DUP2 PUSH1 0x0 ADD SWAP1 DUP1 MLOAD SWAP1 PUSH1 0x20 ADD SWAP1 PUSH2 0x555 SWAP3 SWAP2 SWAP1 PUSH2 0x810 JUMP JUMPDEST POP DUP3 DUP2 PUSH1 0x1 ADD DUP2 SWAP1 SSTORE POP DUP2 DUP2 PUSH1 0x2 ADD PUSH1 0x0 PUSH2 0x100 EXP DUP2 SLOAD DUP2 PUSH20 0xFFFFFFFFFFFFFFFFFFFFFFFFFFFFFFFFFFFFFFFF MUL NOT AND SWAP1 DUP4 PUSH20 0xFFFFFFFFFFFFFFFFFFFFFFFFFFFFFFFFFFFFFFFF AND MUL OR SWAP1 SSTORE POP PUSH1 0x0 DUP2 PUSH1 0x2 ADD PUSH1 0x14 PUSH2 0x100 EXP DUP2 SLOAD DUP2 PUSH1 0xFF MUL NOT AND SWAP1 DUP4 ISZERO ISZERO MUL OR SWAP1 SSTORE POP PUSH1 0x0 DUP2 PUSH1 0x3 ADD DUP2 SWAP1 SSTORE POP POP POP POP POP JUMP JUMPDEST PUSH1 0x2 SLOAD DUP2 JUMP JUMPDEST PUSH1 0x2 SLOAD CALLVALUE LT ISZERO PUSH2 0x5E4 JUMPI PUSH1 0x0 DUP1 REVERT JUMPDEST PUSH1 0x1 PUSH1 0x3 PUSH1 0x0 CALLER PUSH20 0xFFFFFFFFFFFFFFFFFFFFFFFFFFFFFFFFFFFFFFFF AND PUSH20 0xFFFFFFFFFFFFFFFFFFFFFFFFFFFFFFFFFFFFFFFF AND DUP2 MSTORE PUSH1 0x20 ADD SWAP1 DUP2 MSTORE PUSH1 0x20 ADD PUSH1 0x0 KECCAK256 PUSH1 0x0 PUSH2 0x100 EXP DUP2 SLOAD DUP2 PUSH1 0xFF MUL NOT AND SWAP1 DUP4 ISZERO ISZERO MUL OR SWAP1 SSTORE POP PUSH1 0x4 PUSH1 0x0 DUP2 SLOAD DUP1 SWAP3 SWAP2 SWAP1 PUSH2 0x64F SWAP1 PUSH2 0xCAF JUMP JUMPDEST SWAP2 SWAP1 POP SSTORE POP JUMP JUMPDEST PUSH1 0x0 PUSH1 0x1 DUP3 DUP2 SLOAD DUP2 LT PUSH2 0x692 JUMPI PUSH32 0x4E487B7100000000000000000000000000000000000000000000000000000000 PUSH1 0x0 MSTORE PUSH1 0x32 PUSH1 0x4 MSTORE PUSH1 0x24 PUSH1 0x0 REVERT JUMPDEST SWAP1 PUSH1 0x0 MSTORE PUSH1 0x20 PUSH1 0x0 KECCAK256 SWAP1 PUSH1 0x5 MUL ADD SWAP1 POP PUSH1 0x3 PUSH1 0x0 CALLER PUSH20 0xFFFFFFFFFFFFFFFFFFFFFFFFFFFFFFFFFFFFFFFF AND PUSH20 0xFFFFFFFFFFFFFFFFFFFFFFFFFFFFFFFFFFFFFFFF AND DUP2 MSTORE PUSH1 0x20 ADD SWAP1 DUP2 MSTORE PUSH1 0x20 ADD PUSH1 0x0 KECCAK256 PUSH1 0x0 SWAP1 SLOAD SWAP1 PUSH2 0x100 EXP SWAP1 DIV PUSH1 0xFF AND PUSH2 0x6F8 JUMPI PUSH1 0x0 DUP1 REVERT JUMPDEST DUP1 PUSH1 0x4 ADD PUSH1 0x0 CALLER PUSH20 0xFFFFFFFFFFFFFFFFFFFFFFFFFFFFFFFFFFFFFFFF AND PUSH20 0xFFFFFFFFFFFFFFFFFFFFFFFFFFFFFFFFFFFFFFFF AND DUP2 MSTORE PUSH1 0x20 ADD SWAP1 DUP2 MSTORE PUSH1 0x20 ADD PUSH1 0x0 KECCAK256 PUSH1 0x0 SWAP1 SLOAD SWAP1 PUSH2 0x100 EXP SWAP1 DIV PUSH1 0xFF AND ISZERO PUSH2 0x751 JUMPI PUSH1 0x0 DUP1 REVERT JUMPDEST PUSH1 0x1 DUP2 PUSH1 0x4 ADD PUSH1 0x0 CALLER PUSH20 0xFFFFFFFFFFFFFFFFFFFFFFFFFFFFFFFFFFFFFFFF AND PUSH20 0xFFFFFFFFFFFFFFFFFFFFFFFFFFFFFFFFFFFFFFFF AND DUP2 MSTORE PUSH1 0x20 ADD SWAP1 DUP2 MSTORE PUSH1 0x20 ADD PUSH1 0x0 KECCAK256 PUSH1 0x0 PUSH2 0x100 EXP DUP2 SLOAD DUP2 PUSH1 0xFF MUL NOT AND SWAP1 DUP4 ISZERO ISZERO MUL OR SWAP1 SSTORE POP PUSH1 0x1 DUP3 DUP2 SLOAD DUP2 LT PUSH2 0x7E5 JUMPI PUSH32 0x4E487B7100000000000000000000000000000000000000000000000000000000 PUSH1 0x0 MSTORE PUSH1 0x32 PUSH1 0x4 MSTORE PUSH1 0x24 PUSH1 0x0 REVERT JUMPDEST SWAP1 PUSH1 0x0 MSTORE PUSH1 0x20 PUSH1 0x0 KECCAK256 SWAP1 PUSH1 0x5 MUL ADD PUSH1 0x3 ADD PUSH1 0x0 DUP2 SLOAD DUP1 SWAP3 SWAP2 SWAP1 PUSH2 0x807 SWAP1 PUSH2 0xCAF JUMP JUMPDEST SWAP2 SWAP1 POP SSTORE POP POP POP JUMP JUMPDEST DUP3 DUP1 SLOAD PUSH2 0x81C SWAP1 PUSH2 0xC7D JUMP JUMPDEST SWAP1 PUSH1 0x0 MSTORE PUSH1 0x20 PUSH1 0x0 KECCAK256 SWAP1 PUSH1 0x1F ADD PUSH1 0x20 SWAP1 DIV DUP2 ADD SWAP3 DUP3 PUSH2 0x83E JUMPI PUSH1 0x0 DUP6 SSTORE PUSH2 0x885 JUMP JUMPDEST DUP3 PUSH1 0x1F LT PUSH2 0x857 JUMPI DUP1 MLOAD PUSH1 0xFF NOT AND DUP4 DUP1 ADD OR DUP6 SSTORE PUSH2 0x885 JUMP JUMPDEST DUP3 DUP1 ADD PUSH1 0x1 ADD DUP6 SSTORE DUP3 ISZERO PUSH2 0x885 JUMPI SWAP2 DUP3 ADD JUMPDEST DUP3 DUP2 GT ISZERO PUSH2 0x884 JUMPI DUP3 MLOAD DUP3 SSTORE SWAP2 PUSH1 0x20 ADD SWAP2 SWAP1 PUSH1 0x1 ADD SWAP1 PUSH2 0x869 JUMP JUMPDEST JUMPDEST POP SWAP1 POP PUSH2 0x892 SWAP2 SWAP1 PUSH2 0x896 JUMP JUMPDEST POP SWAP1 JUMP JUMPDEST JUMPDEST DUP1 DUP3 GT ISZERO PUSH2 0x8AF JUMPI PUSH1 0x0 DUP2 PUSH1 0x0 SWAP1 SSTORE POP PUSH1 0x1 ADD PUSH2 0x897 JUMP JUMPDEST POP SWAP1 JUMP JUMPDEST PUSH1 0x0 PUSH2 0x8C6 PUSH2 0x8C1 DUP5 PUSH2 0xB64 JUMP JUMPDEST PUSH2 0xB33 JUMP JUMPDEST SWAP1 POP DUP3 DUP2 MSTORE PUSH1 0x20 DUP2 ADD DUP5 DUP5 DUP5 ADD GT ISZERO PUSH2 0x8DE JUMPI PUSH1 0x0 DUP1 REVERT JUMPDEST PUSH2 0x8E9 DUP5 DUP3 DUP6 PUSH2 0xC3B JUMP JUMPDEST POP SWAP4 SWAP3 POP POP POP JUMP JUMPDEST PUSH1 0x0 DUP2 CALLDATALOAD SWAP1 POP PUSH2 0x900 DUP2 PUSH2 0xDC5 JUMP JUMPDEST SWAP3 SWAP2 POP POP JUMP JUMPDEST PUSH1 0x0 DUP2 CALLDATALOAD SWAP1 POP PUSH2 0x915 DUP2 PUSH2 0xDDC JUMP JUMPDEST SWAP3 SWAP2 POP POP JUMP JUMPDEST PUSH1 0x0 DUP3 PUSH1 0x1F DUP4 ADD SLT PUSH2 0x92C JUMPI PUSH1 0x0 DUP1 REVERT JUMPDEST DUP2 CALLDATALOAD PUSH2 0x93C DUP5 DUP3 PUSH1 0x20 DUP7 ADD PUSH2 0x8B3 JUMP JUMPDEST SWAP2 POP POP SWAP3 SWAP2 POP POP JUMP JUMPDEST PUSH1 0x0 DUP2 CALLDATALOAD SWAP1 POP PUSH2 0x954 DUP2 PUSH2 0xDF3 JUMP JUMPDEST SWAP3 SWAP2 POP POP JUMP JUMPDEST PUSH1 0x0 PUSH1 0x20 DUP3 DUP5 SUB SLT ISZERO PUSH2 0x96C JUMPI PUSH1 0x0 DUP1 REVERT JUMPDEST PUSH1 0x0 PUSH2 0x97A DUP5 DUP3 DUP6 ADD PUSH2 0x8F1 JUMP JUMPDEST SWAP2 POP POP SWAP3 SWAP2 POP POP JUMP JUMPDEST PUSH1 0x0 DUP1 PUSH1 0x0 PUSH1 0x60 DUP5 DUP7 SUB SLT ISZERO PUSH2 0x998 JUMPI PUSH1 0x0 DUP1 REVERT JUMPDEST PUSH1 0x0 DUP5 ADD CALLDATALOAD PUSH8 0xFFFFFFFFFFFFFFFF DUP2 GT ISZERO PUSH2 0x9B2 JUMPI PUSH1 0x0 DUP1 REVERT JUMPDEST PUSH2 0x9BE DUP7 DUP3 DUP8 ADD PUSH2 0x91B JUMP JUMPDEST SWAP4 POP POP PUSH1 0x20 PUSH2 0x9CF DUP7 DUP3 DUP8 ADD PUSH2 0x945 JUMP JUMPDEST SWAP3 POP POP PUSH1 0x40 PUSH2 0x9E0 DUP7 DUP3 DUP8 ADD PUSH2 0x906 JUMP JUMPDEST SWAP2 POP POP SWAP3 POP SWAP3 POP SWAP3 JUMP JUMPDEST PUSH1 0x0 PUSH1 0x20 DUP3 DUP5 SUB SLT ISZERO PUSH2 0x9FC JUMPI PUSH1 0x0 DUP1 REVERT JUMPDEST PUSH1 0x0 PUSH2 0xA0A DUP5 DUP3 DUP6 ADD PUSH2 0x945 JUMP JUMPDEST SWAP2 POP POP SWAP3 SWAP2 POP POP JUMP JUMPDEST PUSH2 0xA1C DUP2 PUSH2 0xBF3 JUMP JUMPDEST DUP3 MSTORE POP POP JUMP JUMPDEST PUSH2 0xA2B DUP2 PUSH2 0xBE1 JUMP JUMPDEST DUP3 MSTORE POP POP JUMP JUMPDEST PUSH2 0xA3A DUP2 PUSH2 0xC05 JUMP JUMPDEST DUP3 MSTORE POP POP JUMP JUMPDEST PUSH1 0x0 PUSH2 0xA4B DUP3 PUSH2 0xB94 JUMP JUMPDEST PUSH2 0xA55 DUP2 DUP6 PUSH2 0xB9F JUMP JUMPDEST SWAP4 POP PUSH2 0xA65 DUP2 DUP6 PUSH1 0x20 DUP7 ADD PUSH2 0xC4A JUMP JUMPDEST PUSH2 0xA6E DUP2 PUSH2 0xDB4 JUMP JUMPDEST DUP5 ADD SWAP2 POP POP SWAP3 SWAP2 POP POP JUMP JUMPDEST PUSH2 0xA82 DUP2 PUSH2 0xC31 JUMP JUMPDEST DUP3 MSTORE POP POP JUMP JUMPDEST PUSH1 0x0 PUSH1 0x20 DUP3 ADD SWAP1 POP PUSH2 0xA9D PUSH1 0x0 DUP4 ADD DUP5 PUSH2 0xA22 JUMP JUMPDEST SWAP3 SWAP2 POP POP JUMP JUMPDEST PUSH1 0x0 PUSH1 0x20 DUP3 ADD SWAP1 POP PUSH2 0xAB8 PUSH1 0x0 DUP4 ADD DUP5 PUSH2 0xA31 JUMP JUMPDEST SWAP3 SWAP2 POP POP JUMP JUMPDEST PUSH1 0x0 PUSH1 0xA0 DUP3 ADD SWAP1 POP DUP2 DUP2 SUB PUSH1 0x0 DUP4 ADD MSTORE PUSH2 0xAD8 DUP2 DUP9 PUSH2 0xA40 JUMP JUMPDEST SWAP1 POP PUSH2 0xAE7 PUSH1 0x20 DUP4 ADD DUP8 PUSH2 0xA79 JUMP JUMPDEST PUSH2 0xAF4 PUSH1 0x40 DUP4 ADD DUP7 PUSH2 0xA13 JUMP JUMPDEST PUSH2 0xB01 PUSH1 0x60 DUP4 ADD DUP6 PUSH2 0xA31 JUMP JUMPDEST PUSH2 0xB0E PUSH1 0x80 DUP4 ADD DUP5 PUSH2 0xA79 JUMP JUMPDEST SWAP7 SWAP6 POP POP POP POP POP POP JUMP JUMPDEST PUSH1 0x0 PUSH1 0x20 DUP3 ADD SWAP1 POP PUSH2 0xB2D PUSH1 0x0 DUP4 ADD DUP5 PUSH2 0xA79 JUMP JUMPDEST SWAP3 SWAP2 POP POP JUMP JUMPDEST PUSH1 0x0 PUSH1 0x40 MLOAD SWAP1 POP DUP2 DUP2 ADD DUP2 DUP2 LT PUSH8 0xFFFFFFFFFFFFFFFF DUP3 GT OR ISZERO PUSH2 0xB5A JUMPI PUSH2 0xB59 PUSH2 0xD85 JUMP JUMPDEST JUMPDEST DUP1 PUSH1 0x40 MSTORE POP SWAP2 SWAP1 POP JUMP JUMPDEST PUSH1 0x0 PUSH8 0xFFFFFFFFFFFFFFFF DUP3 GT ISZERO PUSH2 0xB7F JUMPI PUSH2 0xB7E PUSH2 0xD85 JUMP JUMPDEST JUMPDEST PUSH1 0x1F NOT PUSH1 0x1F DUP4 ADD AND SWAP1 POP PUSH1 0x20 DUP2 ADD SWAP1 POP SWAP2 SWAP1 POP JUMP JUMPDEST PUSH1 0x0 DUP2 MLOAD SWAP1 POP SWAP2 SWAP1 POP JUMP JUMPDEST PUSH1 0x0 DUP3 DUP3 MSTORE PUSH1 0x20 DUP3 ADD SWAP1 POP SWAP3 SWAP2 POP POP JUMP JUMPDEST PUSH1 0x0 PUSH2 0xBBB DUP3 PUSH2 0xC31 JUMP JUMPDEST SWAP2 POP PUSH2 0xBC6 DUP4 PUSH2 0xC31 JUMP JUMPDEST SWAP3 POP DUP3 PUSH2 0xBD6 JUMPI PUSH2 0xBD5 PUSH2 0xD27 JUMP JUMPDEST JUMPDEST DUP3 DUP3 DIV SWAP1 POP SWAP3 SWAP2 POP POP JUMP JUMPDEST PUSH1 0x0 PUSH2 0xBEC DUP3 PUSH2 0xC11 JUMP JUMPDEST SWAP1 POP SWAP2 SWAP1 POP JUMP JUMPDEST PUSH1 0x0 PUSH2 0xBFE DUP3 PUSH2 0xC11 JUMP JUMPDEST SWAP1 POP SWAP2 SWAP1 POP JUMP JUMPDEST PUSH1 0x0 DUP2 ISZERO ISZERO SWAP1 POP SWAP2 SWAP1 POP JUMP JUMPDEST PUSH1 0x0 PUSH20 0xFFFFFFFFFFFFFFFFFFFFFFFFFFFFFFFFFFFFFFFF DUP3 AND SWAP1 POP SWAP2 SWAP1 POP JUMP JUMPDEST PUSH1 0x0 DUP2 SWAP1 POP SWAP2 SWAP1 POP JUMP JUMPDEST DUP3 DUP2 DUP4 CALLDATACOPY PUSH1 0x0 DUP4 DUP4 ADD MSTORE POP POP POP JUMP JUMPDEST PUSH1 0x0 JUMPDEST DUP4 DUP2 LT ISZERO PUSH2 0xC68 JUMPI DUP1 DUP3 ADD MLOAD DUP2 DUP5 ADD MSTORE PUSH1 0x20 DUP2 ADD SWAP1 POP PUSH2 0xC4D JUMP JUMPDEST DUP4 DUP2 GT ISZERO PUSH2 0xC77 JUMPI PUSH1 0x0 DUP5 DUP5 ADD MSTORE JUMPDEST POP POP POP POP JUMP JUMPDEST PUSH1 0x0 PUSH1 0x2 DUP3 DIV SWAP1 POP PUSH1 0x1 DUP3 AND DUP1 PUSH2 0xC95 JUMPI PUSH1 0x7F DUP3 AND SWAP2 POP JUMPDEST PUSH1 0x20 DUP3 LT DUP2 EQ ISZERO PUSH2 0xCA9 JUMPI PUSH2 0xCA8 PUSH2 0xD56 JUMP JUMPDEST JUMPDEST POP SWAP2 SWAP1 POP JUMP JUMPDEST PUSH1 0x0 PUSH2 0xCBA DUP3 PUSH2 0xC31 JUMP JUMPDEST SWAP2 POP PUSH32 0xFFFFFFFFFFFFFFFFFFFFFFFFFFFFFFFFFFFFFFFFFFFFFFFFFFFFFFFFFFFFFFFF DUP3 EQ ISZERO PUSH2 0xCED JUMPI PUSH2 0xCEC PUSH2 0xCF8 JUMP JUMPDEST JUMPDEST PUSH1 0x1 DUP3 ADD SWAP1 POP SWAP2 SWAP1 POP JUMP JUMPDEST PUSH32 0x4E487B7100000000000000000000000000000000000000000000000000000000 PUSH1 0x0 MSTORE PUSH1 0x11 PUSH1 0x4 MSTORE PUSH1 0x24 PUSH1 0x0 REVERT JUMPDEST PUSH32 0x4E487B7100000000000000000000000000000000000000000000000000000000 PUSH1 0x0 MSTORE PUSH1 0x12 PUSH1 0x4 MSTORE PUSH1 0x24 PUSH1 0x0 REVERT JUMPDEST PUSH32 0x4E487B7100000000000000000000000000000000000000000000000000000000 PUSH1 0x0 MSTORE PUSH1 0x22 PUSH1 0x4 MSTORE PUSH1 0x24 PUSH1 0x0 REVERT JUMPDEST PUSH32 0x4E487B7100000000000000000000000000000000000000000000000000000000 PUSH1 0x0 MSTORE PUSH1 0x41 PUSH1 0x4 MSTORE PUSH1 0x24 PUSH1 0x0 REVERT JUMPDEST PUSH1 0x0 PUSH1 0x1F NOT PUSH1 0x1F DUP4 ADD AND SWAP1 POP SWAP2 SWAP1 POP JUMP JUMPDEST PUSH2 0xDCE DUP2 PUSH2 0xBE1 JUMP JUMPDEST DUP2 EQ PUSH2 0xDD9 JUMPI PUSH1 0x0 DUP1 REVERT JUMPDEST POP JUMP JUMPDEST PUSH2 0xDE5 DUP2 PUSH2 0xBF3 JUMP JUMPDEST DUP2 EQ PUSH2 0xDF0 JUMPI PUSH1 0x0 DUP1 REVERT JUMPDEST POP JUMP JUMPDEST PUSH2 0xDFC DUP2 PUSH2 0xC31 JUMP JUMPDEST DUP2 EQ PUSH2 0xE07 JUMPI PUSH1 0x0 DUP1 REVERT JUMPDEST POP JUMP INVALID LOG2 PUSH5 0x6970667358 0x22 SLT KECCAK256 RETURN 0xEE CALLDATACOPY 0xE0 BYTE STATICCALL 0xCE PUSH11 0x3CBB62BD2239BE09194E53 SWAP11 0xAC 0xEA 0xC4 0x5D 0x49 0x27 0x49 PC CODESIZE PUSH21 0x97F864736F6C634300080000330000000000000000 "},"gasEstimates":{"creation":{"codeDepositCost":"729600","executionCost":"infinite","totalCost":"infinite"},"external":{"approveRequest(uint256)":"infinite","approvers(address)":"1568","approversCount()":"1129","contribute()":"42927","createRequest(string,uint256,address)":"infinite","finalizeRequest(uint256)":"infinite","manager()":"1256","minContribution()":"1173","requests(uint256)":"infinite"}},"methodIdentifiers":{"approveRequest(uint256)":"d7d1bbdb","approvers(address)":"0a144391","approversCount()":"82fde093","contribute()":"d7bb99ba","createRequest(string,uint256,address)":"8a9cfd55","finalizeRequest(uint256)":"03441006","manager()":"481c6a75","minContribution()":"aaffadf3","requests(uint256)":"81d12c58"}},"storageLayout":{"storage":[{"astId":57,"contract":"Campaign.sol:Campaign","label":"manager","offset":0,"slot":"0","type":"t_address"},{"astId":61,"contract":"Campaign.sol:Campaign","label":"requests","offset":0,"slot":"1","type":"t_array(t_struct(Request)55_storage)dyn_storage"},{"astId":63,"contract":"Campaign.sol:Campaign","label":"minContribution","offset":0,"slot":"2","type":"t_uint256"},{"astId":67,"contract":"Campaign.sol:Campaign","label":"approvers","offset":0,"slot":"3","type":"t_mapping(t_address,t_bool)"},{"astId":69,"contract":"Campaign.sol:Campaign","label":"approversCount","offset":0,"slot":"4","type":"t_uint256"}],"types":{"t_address":{"encoding":"inplace","label":"address","numberOfBytes":"20"},"t_address_payable":{"encoding":"inplace","label":"address payable","numberOfBytes":"20"},"t_array(t_struct(Request)55_storage)dyn_storage":{"base":"t_struct(Request)55_storage","encoding":"dynamic_array","label":"struct Campaign.Request[]","numberOfBytes":"32"},"t_bool":{"encoding":"inplace","label":"bool","numberOfBytes":"1"},"t_mapping(t_address,t_bool)":{"encoding":"mapping","key":"t_address","label":"mapping(address => bool)","numberOfBytes":"32","value":"t_bool"},"t_string_storage":{"encoding":"bytes","label":"string","numberOfBytes":"32"},"t_struct(Request)55_storage":{"encoding":"inplace","label":"struct Campaign.Request","members":[{"astId":42,"contract":"Campaign.sol:Campaign","label":"description","offset":0,"slot":"0","type":"t_string_storage"},{"astId":44,"contract":"Campaign.sol:Campaign","label":"value","offset":0,"slot":"1","type":"t_uint256"},{"astId":46,"contract":"Campaign.sol:Campaign","label":"recipient","offset":0,"slot":"2","type":"t_address_payable"},{"astId":48,"contract":"Campaign.sol:Campaign","label":"complete","offset":20,"slot":"2","type":"t_bool"},{"astId":50,"contract":"Campaign.sol:Campaign","label":"approvalCount","offset":0,"slot":"3","type":"t_uint256"},{"astId":54,"contract":"Campaign.sol:Campaign","label":"approvals","offset":0,"slot":"4","type":"t_mapping(t_address,t_bool)"}],"numberOfBytes":"160"},"t_uint256":{"encoding":"inplace","label":"uint256","numberOfBytes":"32"}}},"userdoc":{"kind":"user","methods":{},"version":1}}